:03000000027A2859
:107A280078EFE4F6D8FD9000007FFF7E04E4F0A331
:0A7A3800DFFCDEFA7581CA027A7DD8
:1049510068656C700D0A002E4D63754273700D0A07
:10496100002E6D63756273700D0A00D7A2D2E2B298
:10497100D9D7F75033B4AEBFDABDC5BBE1B5BCD6AC
:10498100C2CDA8D1B6CAA7D0A7210D0A004961702E
:104991003B0D0A0052657365743B0D0A00506F7739
:1049A1006572446F776E3B0D0A0053657442617204
:1049B1006472617465203C7533323E3B0D0A0043DD
:1049C1006667506F7274203C706F72743E203C7049
:1049D100786D313E203C70786D303E3B0D0A0053BE
:1049E1006574506F7274203C706F72743E203C622B
:1049F1006974733E203C626F6F6C3E3B0D0A004749
:104A01006574506F7274203C706F72743E3B0D0A76
:104A1100006961700D0A00436F756E7420446F77F1
:104A21006E3A3330530D0A00436F756E7420446F34
:104A3100776E3A2530303264530D0A007265736522
:104A4100740D0A00536F6674776172652052657345
:104A51006574210D0A00706F776572646F776E0D52
:104A61000A004D637520506F77657220446F776E31
:104A7100204D6F64652100736574626172647261B7
:104A8100746520005561727430204272743A256C4D
:104A9100750D0A00636667706F72740073657470D8
:104AA1006F727400676574706F7274005025626470
:0D4AB100203D3D202562303032580D0A00B6
:091C3500010A0001090001080088
:0E950B001293037F007EC27D017C0002951941
:04961F0075C7602289
:1092E8007FF1E4FEEEC39D5011A807E612166374E1
:0A92F8000129F9E43AFA0F0E80EAAA
:019302002248
:07000300758F4043870222C4
:10930300E4F593F594F591F592F595F596F5B17528
:0B931300B20475BB70F5B375B4802286
:1090BB00EF146012146014146016146018240470FA
:1090CB00188D938B94228D918B92228D958B96225A
:0A90DB008DB18BB2228DB38BB4224D
:10878500EF14601914602214602B146034240470F3
:108795003BEB6004ED428022EDF4528022EB600455
:1087A500ED429022EDF4529022EB6004ED42A022BE
:1087B500EDF452A022EB6004ED42B022EDF452B08C
:0D87C50022EB6004ED42C022EDF452C02210
:10915600EF14601014601014601014601024047072
:109166000FAF8022AF9022AFA022AFB022AFC022B5
:039176007F002255
:0E951900759850438920758DFFD28ED2AC22FA
:0A957E00E50A70FC8F99750A0122BE
:03002300028697BB
:10869700C0E0C0F0C083C082C0D075D000C000C0A9
:1086A70001C002C003C004C005C006C00730980D52
:1086B700C298750901859908AF0812467130990566
:1086C700C299750A00D007D006D005D004D003D0D0
:1086D70002D001D000D0D0D082D083D0F0D0E03209
:0B956800E58F6006E4F58F75083022E7
:0695FB00A280E433FF2210
:06960100A281E433FF2208
:10297F0078A67C057D017BFF7A497951121B8AEF7E
:10298F00700C7BFF7A4979581286E77F002278A670
:10299F007C057D017BFF7A497962121B8AEF7048B3
:1029AF007BFF7A49796C1286E77BFF7A49798E1221
:1029BF0086E77BFF7A4979951286E77BFF7A49791B
:1029CF009E1286E77BFF7A4979AB1286E77BFF7A07
:1029DF004979C01286E77BFF7A4979E01286E77B57
:1029EF00FF7A4A7900022CE878A67C057D017BFFEF
:1029FF007A4A7912121B8AEF70617BFF7A4A791833
:102A0F001286E79005E57402F0A37458F09005E57F
:102A1F0074FFF5F012171445F0603DE50970391297
:102A2F0095277F321295ED9005E5E0FEA3E0FF7C40
:102A3F00007D141216A9ED4C70D39005E5E0FEA3AE
:102A4F00E0FF7C007D141216A98E298F2A7BFF7A56
:102A5F004A79291286E780B512961F78A67C057DE4
:102A6F00017BFF7A4A793D121B8AEF700B7BFF7A4D
:102A7F004A79451286E780FE78A67C057D017BFFAB
:102A8F007A4A7957121B8AEF700C7BFF7A4A796367
:102A9F001286E712000378A67C057D017BFF7A4A38
:102AAF007978121B8AEF70747B017A0579A6FD1273
:102ABF009222EF049005C6F024A6F9E43405FA7BC0
:102ACF0001C0038B257526057527EBD003123B0D2F
:102ADF00EF7002FF229005C6E024A5F9E43405FA51
:102AEF007B0112937BEF7002FF227BFF7A4A79857D
:102AFF009005EBE0FCA3E0FDA3E0FEA3E0F52C8E38
:102B0F002B8D2A8C291286E79005EBE0FCA3E0FDC4
:102B1F00A3E0FEA3E0FF1295197F012278A67C05A2
:102B2F007D017BFF7A4A7995121B8AEF6003022B96
:102B3F00D57B017A0579A6FD129222EF049005C686
:102B4F00F024A6F9E43405FA7B01C0038B26752720
:102B5F00057528E2D00312653DEF7002FF22900544
:102B6F00C6E024A6F9E43405FA7B01C0038B267571
:102B7F0027057528E3D00312653DEF7002FF229001
:102B8F0005C6E024A6F9E43405FA7B01C0038B26C1
:102B9F007527057528E4D00312653DEF7002FF22FB
:102BAF009005C6E024A5F9E43405FA7B0112937B66
:102BBF00EF7002FF229005E2E0FFA3E0FDA3E0FB30
:102BCF001290BB7F012278A67C057D017BFF7A4A9C
:102BDF00799D121B8AEF6003022C817B017A0579A4
:102BEF00A6FD129222EF049005C6F024A6F9E43454
:102BFF0005FA7B01C0038B267527057528E2D003E4
:102C0F0012653DEF7002FF229005C6E024A6F9E49D
:102C1F003405FA7B01C0038B267527057528E3D091
:102C2F000312653DEF7002FF229005C6E024A6F95E
:102C3F00E43405FA7B01C0038B267527057528D769
:102C4F00D00312653DEF7002FF229005C6E024A568
:102C5F00F9E43405FA7B0112937BEF7002FF2290A7
:102C6F0005E2E0FFA3E0FD9005D7E0FB1287857F2B
:102C7F00012278A67C057D017BFF7A4A79A5121B7C
:102C8F008AEF705B7B017A0579A6FD129222EF0421
:102C9F009005C6F024A6F9E43405FA7B01C0038B36
:102CAF00267527057528E2D00312653DEF7002FFE8
:102CBF00229005C6E024A5F9E43405FA7B011293AE
:102CCF007BEF7002FF229005E2E0FF1291568F2AF0
:102CDF007BFF7A4A79ADE0F5291286E77F01227FE3
:022CEF000022C1
:0C955000C2AF53C71843C70143C78022B5
:09959C0053C77FE4F5C6D2AF22EB
:0A95880012955075C65A75C6A5224B
:1091DD00EE54FE90062AF0A3E4F090062AE0F5C3C3
:0F91ED00E4F5C453C5F843C50312958802959C59
:1093A000AD07AC068CC3EDF5C453C5F843C5011237
:0893B000958812959CAFC222C2
:1093E800AB07AA068AC3EBF5C453C5F843C5028D7B
:0793F800C212958802959C4A
:031C3E00011E0084
:0496230075C13E22AD
:04962700781E062281
:0E952700781EE6D394144005E4F643C11022EA
:1094BE004391035392FC759D03E4F5BD75BC802268
:10941500EF4488F5BC00000000E5BC30E4FB53BC1C
:03942500EFAFBDE9
:019428002221
:1087D2000D0A00202020202030302030312030327D
:1087E20020303320303420303520303620303720CE
:1087F2003038203039203041203042203043203080
:1088020044203045203046000D0A30782562302E53
:0C88120032583A002562302E3258200007
:0686E7008B268A2789287A
:1086ED00E4F538F539F53A753B00753C298B538A1D
:1086FD00548955853A56853B57853C58FB7A007908
:10870D0079128FDE7B007A00797912000E8F38E4B2
:10871D00F539E539C39538500E74792539F8E6FFEA
:09872D0012957E053980EBAF388E
:018736002220
:08830B008B228A2389248D25B1
:108313007BFF7A8779D21286E77BFF7A8779D5123A
:1083230086E7E4781FF6781FE6FFC395255032EF02
:10833300540F700C7BFF7A88790AE6F5291286E7D9
:10834300AB22AA23A924781FE6F5827583001216AF
:1083530014F5297BFF7A8879161286E7781F068041
:0A836300C57BFF7A8779D20286E716
:10518E00696E6B65720D0A0057656C636F6D204911
:10519E006E6B65722053797374656D20446562750C
:1051AE0067204D6F6465210D0A0068656C700D0AED
:1051BE0000496E6B65725379730025733E0025733B
:1051CE000025730D0A00CEDED0A7C3FCC1EE00553C
:1051DE006E6B6E6F776E20436D64002562303032D9
:1051EE00753A2562303032753A2562303032753E6E
:1051FE00004578697420496E6B657220446562754E
:10520E00672053797374656D210D0A000D0A2562AE
:10521E00303032753A2562303032753A2562303090
:10522E0032753E002E4462670D0A002E6462670DD1
:10523E000A004462674D73670D0A004C6F676F4E2C
:10524E00616D65203C227374723136223E0D0A0068
:10525E00436F6D4462672020203C456E313E203CFA
:10526E0073617665313E0D0A00457869740D0A004A
:10527E006462676D73670D0A004C6F676F4E616DE8
:10528E00653A25730D0A00496E50757420305833F7
:10529E0041203D3E20683361206F72204833610DFE
:1052AE000A006C6F676F6E616D6500636F6D64628F
:1052BE006700436F6D446267203C3D202562640D9C
:0952CE000A00657869740D0A00FC
:10910C00E4FF1215FBFEB50508E5261216637F0178
:10911C0022EEB40D037F0022740129F9E43AFA0F10
:05912C00BF20DF7F0001
:01913100221B
:1091BD001215FBFF6019C39441400BEFD3945A5025
:1091CD00057420121641740129F9E43AFA80E1225E
:07921B007B017A0579A6FD35
:10922200E4FF1215FBB5050122740129F9E43AFAAB
:069232000FBF20EE7FFFDC
:019238002213
:0D936E009005C6E024A5F9E43405FA7B0162
:0C937B001215FBB40D037F01227F0022BD
:068CFA008B228A2389246D
:108D0000E4FF1215FBB4310CAB25AA26A927740188
:108D10001216630FAB22AA23A9241215FBB4300C40
:108D2000AB25AA26A927E41216637F019005C6E0A9
:038D30002402F02A
:018D3300221D
:067EC0008B238A248925B2
:107EC6007F01E4FEF5291215FB642260021F22746D
:107ED600012525F525E43524F5248045EEC3940DCA
:107EE6005047AB23AA24A9251215FBFDB4221790EF
:107EF60005C6E004F0AB26AA27A9288E8275830062
:107F0600E41216758023AB26AA27A9288E827583CC
:107F160000ED12167574012525F525E43524F524A2
:107F26000E9005C6E004F080B3EE7001FF9005C622
:037F3600E004F074
:017F39002225
:10653D007F01E4FEFD1215FBFC64486008EC646805
:10654D0060030265D9740129F9E43AFA804CEEC36F
:10655D009402504E1215FBFCC39430401AECD394A8
:10656D00395014EDC454F0FDEC540F2DFD74012978
:10657D00F9E43AFA0E80231215FBFCC39461402214
:10658D00ECD39466501CEDC454F0FDEC540F2D2447
:10659D0009FD740129F9E43AFA0E9005C6E004F0FC
:1065AD0080ACEE7001FFEE640270691215FBFCC346
:1065BD0094614008ECD394665002E4FFECC3943030
:1065CD004052ECD39439504CE4FF8048EEC3940311
:1065DD00502A1215FBFCC394304021ECD394395052
:1065ED001BED75F00AA4FDEC540F2DFD740129F976
:1065FD00E43AFA0E9005C6E004F080D0EE7001FF8B
:10660D00BE03111215FBFEC394304008EED394392E
:10661D005002E4FFAB26AA27A928ED1216639005B8
:04662D00C6E004F0CF
:016631002246
:104EE900752801E4F529F52AF52B1215FBFF64480D
:104EF9006008EF64686003024FCC740129F9E43A51
:104F0900FA024F94E529C394044003024F9D1215F8
:104F1900FBFFC394304031EFD39439502BE52BC4B8
:104F2900F8540FC868F52BE52AC454F048F52A123D
:104F390015FB540F252BF52BE4352AF52A74012985
:104F4900F9E43AFA052980431215FBFFC39461403D
:104F590043EFD39466503DE52BC4F8540FC868F568
:104F69002BE52AC454F048F52A1215FB540F252BBA
:104F7900F52BE4352AF52A7409252BF52BE4352A76
:104F8900F52A740129F9E43AFA05299005C6E004DD
:104F9900F0024F0DE5297002F528E5296404600344
:104FA90002502D1215FBFFC394614009EFD394669B
:104FB9005003E4F528EFC394304069EFD394395096
:104FC90063805EE529C39406503D1215FBFFC39427
:104FD900304034EFD39439502EAE2AAF2B7C007D6C
:104FE9000A1216978E2A8F2B1215FB540F252BF5B3
:104FF9002BE4352AF52A740129F9E43AFA052990AE
:1050090005C6E004F080BCE5297002F528E529B45D
:1050190006121215FBFFC394304009EFD39439509F
:1050290003E4F528AB25AA26A927E52A852BF01242
:0A50390017DA9005C6E004F0AF2876
:01504300224A
:063B0D008B228A238924AB
:103B1300752801E4F529F52DF52CF52BF52A121559
:103B2300FBFF64486008EF64686003023C4974016A
:103B33002524F524E43523F523023C04E529C39425
:103B4300084003023C0DAB22AA23A9241215FBFF54
:103B5300C394304048EFD394395042AF2DAE2CADCF
:103B63002BAC2A78041218A78F2D8E2C8D2B8C2A20
:103B73001215FB540FFFE4FCFDFEE52D2FF52DEE92
:103B8300352CF52CED352BF52BEC352AF52A740164
:103B93002524F524E43523F523052980641215FB38
:103BA300FFC394614064EFD39466505EAF2DAE2C97
:103BB300AD2BAC2A78041218A78F2D8E2C8D2B8C4D
:103BC3002A1215FB540FFFE4FCFDFEE52D2FF52D06
:103BD300EE352CF52CED352BF52BEC352AF52AE5B6
:103BE3002D2409F52DE4352CF52CE4352BF52BE4A8
:103BF300352AF52A74012524F524E43523F5230514
:103C0300299005C6E004F0023B3FE5297002F52840
:103C1300E52964086003023CDAAB22AA23A9241233
:103C230015FBFFC394614009EFD394665003E4F599
:103C330028EFC394305003023CDAEFD394394003A6
:103C4300023CDA023CD7E529C3940A5067AB22AAA7
:103C530023A9241215FBFFC394304058EFD39439A2
:103C63005052AF2DAE2CAD2BAC2AE47B0AFAF9F8F7
:103C73001218268F2D8E2C8D2B8C2AAB22AA23A9CA
:103C8300241215FB540FFFE4FCFDFEE52D2FF52D4B
:103C9300EE352CF52CED352BF52BEC352AF52A7466
:103CA300012524F524E43523F52305299005C6E0F1
:103CB30004F08092E5297002F528E529B40618ABD3
:103CC30022AA23A9241215FBFFC394304009EFD382
:103CD30094395003E4F528AF2DAE2CAD2BAC2AABB1
:103CE30025AA26A9271218DA9005C6E004F0AF2802
:013CF30022AE
:062FC3008B238A248925FE
:102FC900752901E4F52AF52BF52CF52DF531F530A8
:102FD900F52FF52EF535F534F533F532F539F538A4
:102FE900F537F5361215FBB42D1474012525F52591
:102FF900E43524F5249005C6E004F0752D01E52A91
:10300900C394084003023219AB23AA24A925121537
:10301900FBFFC3943050030231F1EFD394394003DD
:103029000231F1E52B70030231A01215FB540FFC9C
:10303900E41212E58F398E388D378C36E52BB401C1
:103049002DAB35AA34A933A832C000C001C002C0D3
:1030590003E4FBFA792078411211C0D003D002D0E1
:1030690001D000120FC68F358E348D338C32E52B8B
:10307900B40235AB35AA34A933A832C000C001C0A7
:1030890002C003E4FBFA79C87842AF39AE38AD37EC
:10309900AC361211C0D003D002D001D000120FC635
:1030A9008F358E348D338C32E52BB40335AB35AA8D
:1030B90034A933A832C000C001C002C003E4FBFA3E
:1030C900797A7844AF39AE38AD37AC361211C0D001
:1030D90003D002D001D000120FC68F358E348D3344
:1030E9008C32E52BB40436AB35AA34A933A832C0E7
:1030F90000C001C002C0037B007A40791C7846AF4A
:1031090039AE38AD37AC361211C0D003D002D00178
:10311900D000120FC68F358E348D338C32E52BB427
:103129000536AB35AA34A933A832C000C001C002A4
:10313900C0037B007A5079C37847AF39AE38AD37D1
:10314900AC361211C0D003D002D001D000120FC684
:103159008F358E348D338C32E52BB40636AB35AAD8
:1031690034A933A832C000C001C002C0037B007A71
:103179002479747849AF39AE38AD37AC361211C0FD
:10318900D003D002D001D000120FC68F358E348DF6
:10319900338C32052B804DAF31AE30AD2FAC2EE4E0
:1031A900FBFA792078411210B78F318E308D2F8C30
:1031B9002EAB31AA30A92FA82EC000C001C002C071
:1031C90003AB23AA24A9251215FB540FFCE4121200
:1031D900E5D003D002D001D000120FC68F318E3056
:1031E9008D2F8C2E74018014AB23AA24A9251215C6
:1031F900FBB42E1CE52B7018752B01042525F5252C
:10320900E43524F524052A9005C6E004F0023007C8
:10321900E52A7002F529E52AB40818AB23AA24A9DE
:10322900251215FBFFC394304009EFD3943950039D
:10323900E4F529AF35AE34AD33AC32AB31AA30A9A0
:103249002FA82E120FC68F398E388D378C36E52D63
:1032590060051212CA8008AF39AE38AD37AC36AB4B
:1032690026AA27A9281218DA9005C6E004F0AF2982
:013279002232
:108D6E0078A67C057D017BFF7A51798E121B8AEFE6
:108D7E00702490064304F07BFF7A5179961286E7B1
:108D8E0078A67C057D017BFF7A5179B87E007F073E
:098D9E001215D57F01227F00228D
:10893800E49005A5F0900643E0603878A67C057DB4
:10894800017BFF7A5179B87E007F071215D578C769
:108958007C057D017BFF7A5179BF7E007F09121566
:10896800D57529FF752A51752BBF7BFF7A5179C8B8
:048978001286E7225A
:103ED300E5097003024070E4F509900643E07003BE
:103EE300023FF0E508640D6009E508640A60030217
:103EF3003FA09005A5E0604B7F0D12957E7F0A12CF
:103F0300957E9005A5E0FF04F074A62FF582E434B6
:103F130005F583740DF09005A5E0FF04F074A62F5A
:103F2300F582E43405F583740AF09005A5E0FF04F7
:103F3300F074A62FF582E43405F583E4F09005A52B
:103F4300F0801F7B017A0579A6752620E4FD129186
:103F53000C8B29752A05752BA67BFF7A5179CC1218
:103F630086E7126F27EF702190064FE07BFF600614
:103F73007A5179D480047A5179DD8B298A2A892B65
:103F83007BFF7A5179CF1286E7900643E07BFF608F
:103F9300067A5179E9803C7A5179FF8048E508B483
:103FA300080A9005A5E0601A14F080169005A5E0B4
:103FB30024A6F582E43405F583E508F09005A5E031
:103FC30004F09005A5E0C3941D401DE4F07BFF7A47
:103FD30052791A900659E0F529900658E0F52A908F
:103FE3000657E0F52B0286E7AF0802957EE50864E5
:103FF3000D6006E508640A70449005A5E0606EFF55
:1040030004F074A62FF582E43405F583740DF09063
:1040130005A5E0FF04F074A62FF582E43405F583CB
:10402300740AF09005A5E0FF04F074A62FF582E46E
:104033003405F583E4F09005A5F0026F27E508B495
:10404300080A9005A5E0601A14F080169005A5E013
:1040530024A6F582E43405F583E508F09005A5E090
:0E40630004F09005A5E0C3941E4002E4F02294
:106F2700900643E07003026FEA7B017A0579A6E4D5
:106F3700F5267D2012910C7A0579A61291BD124192
:106F4700F8BF01037F0122122567BF01037F0122DA
:106F5700122CF1BF01037F0122124071BF01037F91
:106F67000122125F33BF01037F012212297FBF0174
:106F7700037F01221282A8BF01037F012212613F12
:106F8700BF01037F0122126243BF01037F01221267
:106F97006FF0BF01037F0122124D8CBF01037F01F8
:106FA70022128544BF01037F01221252D7BF01037A
:106FB7007F012212437CBF01037F0122127AC2BFE5
:106FC70001037F01221236FABF01037F012278A64F
:106FD7007C057D017BFF7A5179B8121B8AEF700619
:096FE7007F0122028D6E7F002261
:1041F80078A67C057D017BFF7A5179B8121B8AEF7E
:10420800700C7BFF7A5279321286E77F002278A6FB
:104218007C057D017BFF7A527939121B8AEF702465
:104228007BFF7A5279401286E77BFF7A52794912EE
:1042380086E77BFF7A52795E1286E77BFF7A5279AE
:104248007702435678A67C057D017BFF7A52797EFA
:10425800121B8AEF701B752901752A05752BC77B00
:10426800FF7A5279871286E77BFF7A527995024363
:104278005678A67C057D017BFF7A5279B0121B8A9D
:10428800EF703E12921BEF049005C6F024A6F9E4E5
:104298003405FAC0038B267527057528C7D0031285
:1042A8007EC0EF7002FF2212936EEF7002FF22753C
:1042B8002901752A05752BC77BFF7A5179CF0243EF
:1042C8005678A67C057D017BFF7A5279B9121B8A44
:1042D800EF600302435C12921BEF049005C6F024C2
:1042E800A6F9E43405FAC0038B257526057527D78A
:1042F800D003128CFAEF7002FF229005C6E024A6C4
:10430800F9E43405FA7B01C0038B2575260575276A
:10431800D8D003128CFAEF7002FF2212936EEF705E
:1043280002FF229005D7E0900643F09005D8E060A0
:1043380011E4900650F0900643E0A3F090065674FE
:1043480001F07BFF7A5279C0900643E0F529128686
:10435800E77F012278A67C057D017BFF7A5279D020
:10436800121B8AEF700B900643F0900650F07F0105
:04437800227F00227E
:108C840068656C700D0A002E666F726D61740D0A52
:108C94000066746F680068746F660064313668003B
:108CA40068313664006433326800683332640073B8
:0B8CB40032680001020408102040801C
:10881E008F338E328D318C30900003EF121675AF80
:10882E0033AE32AD31AC307808121894900002EFAE
:10883E00121675AF33AE32AD31AC307810121894CB
:10884E00900001EF121675AF33AE32AD31AC307809
:08885E0018121894EF021663D2
:1075B100E4F53BF53AF539F5381215FBFFE53B4F9C
:1075C100F53BE53AF53AE539F539E538F538AF3BBC
:1075D100AE3AAD39FC78081218A78F3B8E3A8D3937
:1075E1008C38900001121614FFE53B4FF53BE53A4C
:1075F100F53AE539F539E538F538AF3BAE3AAD390D
:10760100FC78081218A78F3B8E3A8D398C38900080
:1076110002121614FFE53B4FF53BE53AF53AE53921
:10762100F539E538F538AF3BAE3AAD39FC7808129B
:1076310018A78F3B8E3A8D398C389000031216149F
:10764100FFE53B4FF53BE53AF53AE539F539E538E4
:09765100F538AF3BAE3AAD39FC4F
:01765A00220D
:089489008F338E328D318C30DF
:099491007B007A0079301218BA50
:01949A0022AF
:08949B008F328E318D308C2FD1
:0994A3007B007A00792F1218BA3F
:0194AC00229D
:109275001215FBFF900001121614FEEFD394A040C7
:0C92850009EED394A040037F01227F007B
:0192910022BA
:102CF10078A67C057D017BFF7A8C7984121B8AEF93
:102D01007002FF2278A67C057D017BFF7A8C798B8E
:102D1100121B8AEF70037F012278A67C057D017B5F
:102D2100FF7A8C7995121B8AEF705F7B017A0579A6
:102D3100A6FD129222EF049005C6F024A6F9E43410
:102D410005FA7B01C0038B267527057528EFD00393
:102D5100122FC3EF7002FF229005C6E024A5F9E40B
:102D61003405FA7B0112937BEF7002FF229005EF8D
:102D7100E0FCA3E0FDA3E0FEA3E0FF1294897B0148
:102D81007A0579DA12881E7F012278A67C057D01F9
:102D91007BFF7A8C799A121B8AEF705C7B017A0532
:102DA10079A6FD129222EF049005C6F024A6F9E45B
:102DB1003405FA7B01C0038B257526057527EBD0F9
:102DC10003123B0DEF7002FF229005C6E024A5F926
:102DD100E43405FA7B0112937BEF7002FF22900528
:102DE100EBE0FCA3E0FDA3E0FEA3E0FF12949B90C7
:102DF10005EF1218F47F012278A67C057D017BFF87
:102E01007A8C799F121B8AEF70457B017A0579A62E
:102E1100FD129222EF049005C6F024A6F9E43405D0
:102E2100FA7B01C0038B257526057527E5D00312B2
:102E31004EE9EF7002FF229005C6E024A5F9E434C3
:102E410005FA7B0112937BEF7002FF227F0122784A
:102E5100A67C057D017BFF7A8C79A4121B8AEF7019
:102E6100457B017A0579A6FD129222EF049005C6F1
:102E7100F024A6F9E43405FA7B01C0038B257526FD
:102E8100057527E5D003124EE9EF7002FF22900588
:102E9100C6E024A5F9E43405FA7B0112937BEF70B7
:102EA10002FF227F012278A67C057D017BFF7A8CBF
:102EB10079A9121B8AEF70457B017A0579A6FD126B
:102EC1009222EF049005C6F024A6F9E43405FA7BBA
:102ED10001C0038B257526057527EBD003123B0D29
:102EE100EF7002FF229005C6E024A5F9E43405FA4B
:102EF1007B0112937BEF7002FF227F012278A67C77
:102F0100057D017BFF7A8C79AE121B8AEF70457BC0
:102F1100017A0579A6FD129222EF049005C6F024EC
:102F2100A6F9E43405FA7B01C0038B2575260575E6
:102F310027EBD003123B0DEF7002FF229005C6E094
:102F410024A5F9E43405FA7B0112937BEF7002FFAB
:102F5100227F012278A67C057D017BFF7A8C79B3E3
:102F6100121B8AEF70597B017A0579A6FD12922214
:102F7100EF049005C6F024A6F9E43405FA7B01C0FC
:102F8100038B267527057528C7D003127EC0EF7005
:102F910002FF229005C6E024A5F9E43405FA7B017D
:102FA10012937BEF7002FF227B017A0579C7120031
:102FB1000EAD077B017A0579C712830B7F01227F52
:022FC1000022EC
:105E2B0020204175746865723A2025730D0A002095
:105E3B002053797374656D3A2025730D0A00204346
:105E4B006F6D70616E793A2025730D0A00205072C8
:105E5B006F647563743A2025732C25730D0A00202B
:105E6B0056657273696F6E3A2025732C25730D0A74
:105E7B0000204275696C6465643A20257320257394
:105E8B000D0A002020466F73636C6B3A2025302E71
:105E9B0034664D487A0D0A0025730041707220302C
:105EAB003920323031370030303A31323A33350025
:105EBB0001496E6B65722E446F6E67000000000027
:105ECB00000047504D4C5F53595300000000000039
:105EDB00000000D6C7D3CEB5E7D7D3D3D0CFDEB92A
:105EEB00ABCBBE00D6C7C4DCB9DCBCD2C6C5000088
:105EFB0000000000005A5938383838000000000004
:105F0B00000000000000312E3031000000000000C6
:105F1B000000000000000044000000000000000032
:085F2B0000000000000000006E
:0795AE007BFF7A5E79BC220D
:0795B5007BFF7A5E79CD22F5
:0795BC007BFF7A5E79DE22DD
:0795C3007BFF7A5E79EF22C5
:0795CA007BFF7A5F790022AC
:0795D1007BFF7A5F79112294
:0795D8007BFF7A5F7922227C
:0795DF007B017A06795A2294
:0795E6007B017A0679662281
:10717C001295AE8B298A2A892B7BFF7A5E792B128A
:10718C0086E71295B58B298A2A892B7BFF7A5E7943
:10719C003A1286E71295BC8B298A2A892B7BFF7AB7
:1071AC005E79491286E71295C3C003C002C0011272
:1071BC0095CA8B2C8A2D892ED001D002D0038B2915
:1071CC008A2A892B7BFF7A5E79581286E71295D131
:1071DC00C003C002C0011295D88B2C8A2D892ED0E9
:1071EC0001D002D0038B298A2A892B7BFF7A5E7906
:1071FC006A1286E71295DFC003C002C0011295E641
:10720C008B2C8A2D892ED001D002D0038B298A2A6F
:10721C00892B7BFF7A5E797C1286E77BFF7A5E791D
:0F722C008EE4F52CF52B752AC07529410286E7F3
:108E4C00755CFF755D5E755EA3755FFF75605E7525
:108E5C0061A67B017A06795A122154755CFF755D07
:108E6C005E755EA3755FFF75605E7561B27B017A9E
:068E7C0006796602215494
:10603B0068656C700D0A002E4C6963656E73650D97
:10604B000A002E6C6963656E73650D0A004C6963FB
:10605B004D73673B0D0A004C6963656E7365203C9D
:10606B0075383E3B0D0A006C69636D73670D0A0052
:10607B0053746349443A30582562303032582562A4
:10608B003030325825623030325825623030325839
:10609B00256230303258256230303258256230302C
:1060AB0032580D0A002D3E4C6963656E73652043B3
:1060BB006F64653A30582562303032580D0A00C88B
:1060CB00CFD6A4D7B4CCAC3A00D2D1C8CFD6A40D7E
:1060DB000A00CEB4C8CFD6A40D0A00D3D0D0A7D413
:1060EB00CBD0D03A2564530D0A006C6963656E738F
:1060FB0065004C6963656E736520537563636573E7
:10610B0073210D0A004C6963656E736520466169E6
:10611B006C757265210D0A004D61696C3A646F6E86
:10612B00676D616F77616E3939403136332E636F2E
:04613B006D0D0A00DC
:108F1E00E4FFFE74852EF582E43406F583E02FFF20
:108F2E000EBE07EFE4FEEF2EFD748C2EF582E434B8
:108F3E0006F583E06D60037F00220EBE08E87F0118
:018F4E002200
:10929200900695E4F0A3740AF07B017A0679857D45
:0D92A200071292E8128F1E900694EFF02242
:1092AF00900694E06008A3E4F0A3740AF0229006FD
:0D92BF0096E024FFF0900695E034FFF022C9
:1040710078A67C057D017BFF7A60793B121B8AEF74
:10408100700C7BFF7A6079421286E77F002278A666
:104091007C057D017BFF7A60794D121B8AEF7015DB
:1040A1007BFF7A6079581286E77BFF7A607962122A
:1040B10086E77F012278A67C057D017BFF7A607906
:1040C10072121B8AEF60030241527BFF7A60797B97
:1040D100900685E0F529A3E0F52AA3E0F52BA3E0FE
:1040E100F52CA3E0F52DA3E0F52EA3E0F52F128624
:1040F100E7E49005E2F0F52274852522F582E434A7
:1041010006F583E0FF9005E2E02FF00522E522B4F9
:1041110007E67BFF7A6079B09005E2E0F529128627
:10412100E77BFF7A6079CA1286E7900694E07BFF0D
:1041310060067A6079D480137A6079DD1286E77B34
:10414100FF7A6079E6752900752A0A1286E77F01F0
:104151002278A67C057D017BFF7A6079F5121B8AA6
:10416100EF60030241F57B017A0579A6FD129222E7
:10417100EF049005C6F024A6F9E43405FA7B01C0EA
:10418100038B267527057528E2D00312653DEF7074
:1041910002FF229005C6E024A5F9E43405FA7B016B
:1041A10012937BEF7002FF22E4F5229005E2E025F5
:1041B10022FF748C2522F582E43406F583EFF005A5
:1041C10022E522B408E5128F1E900694EFF07BFFE2
:1041D100600F7A6079FD1286E79006567401F080CF
:1041E100107A6179101286E77BFF7A617923128652
:0641F100E77F01227F00C0
:0141F70022A5
:1080990068656C700D0A002E52756E54696D650D18
:1080A9000A002E72756E74696D650D0A0052756E3F
:1080B90054696D654D73670D0A0052756E54696D8B
:1080C90065203C7533323E0D0A0072756E74696D18
:1080D900656D73670D0A0052756E54696D653A25B1
:1080E9006C750D0A0072756E74696D650052756E56
:0E80F90054696D65203C3D20256C750D0A0014
:101C41004406BF0000000001CA0001C80001C91E0E
:0F94DE007F007E021291DDE49006C3F0A3F0221E
:10765B007B007A0079247F007E02128BCB74FFFFB4
:10766B00FEFDFCAB27AA26A925A824C312188370FC
:10767B000E1294DE9006BF1219000000000022E4E7
:10768B00F52CF52DE52DAE2C7802C333CE33CED8A9
:10769B00F92400FFEE3402FE7B007A007924128B72
:1076AB00CB74FFFFFEFDFCAB27AA26A925A824C39C
:1076BB001218837018E52DAE2C7802C333CE33CE5F
:1076CB00D8F99006C4F0EE9006C3F0801D85272BE9
:1076DB0085262A852529852428052DE52D7002056B
:1076EB002CC39480E52C9400409AAF2BAE2AAD2985
:0876FB00AC289006BF1218F440
:017703002263
:1093B80078C806E6C39464400EE4F60806E6943CD2
:0793C8004005E4F608760100
:0193CF00227B
:1078F000E4F52278CAE67003027989E4F69006BFBF
:10790000E0FCA3E0FDA3E0FEA3E02401FFE43EFED3
:10791000E43DFDE43CFC9006BF1218F4752201C35F
:107920009006C3E0940240297F007E021291DDE4BC
:107930009006C3F0A3F09006BFE0FCA3E0FDA3E037
:10794000FEA3E0F52A8E298D288C277F007E0280F9
:10795000279006C4E02400FF9006C3E03402FEC076
:10796000069006BFE0FCA3E0FDA3E0FEA3E0F52A3D
:107970008E298D288C27D006128DA79006C4E0246E
:0B79800004F09006C3E03400F0AF22DA
:01798B0022D9
:105F330078A67C057D017BFF7A807999121B8AEF15
:105F4300700C7BFF7A8079A01286E77F002278A607
:105F53007C057D017BFF7A8079AB121B8AEF70127F
:105F63007BFF7A8079B61286E77BFF7A8079C3025A
:105F7300603278A67C057D017BFF7A8079D3121B82
:105F83008AEF701E7BFF7A8079E09006BFE0FCA366
:105F9300E0FDA3E0FEA3E0F52C8E2B8D2A8C2902D5
:105FA300603278A67C057D017BFF7A8079EE121B37
:105FB3008AEF60030260387B017A0579A6FD1292AD
:105FC30022EF049005C6F024A6F9E43405FA7B0118
:105FD300C0038B257526057527EBD003123B0DEF08
:105FE3007002FF229005C6E024A5F9E43405FA7B8C
:105FF3000112937BEF7002FF221294DE9005EBE017
:10600300FCA3E0FDA3E0FEA3E0FF9006BF1218F49B
:1060130078CA76017BFF7A8079F69006BFE0FCA30D
:10602300E0FDA3E0FEA3E0F52C8E2B8D2A8C291234
:0860330086E77F01227F0022B5
:03962B000291DDCC
:03962E000293E8BC
:10943D008B388A39893A1293A0AB38AA39A93AEFF9
:03944D00021663A1
:109179008E258F268C278D28E527FDAF26AE251253
:1091890093E8E5262401FFE43525FEAD28E528020C
:0291990093E859
:108431008E258F268B278A2889291293A0AB27AAFC
:1084410028A929E48FF01217DAAB27AA28A9291243
:10845100172A75F0001217DAAB27AA28A929C00339
:10846100C002C00112172AFFAEF0C007C006E52600
:108471002401FFE43525FE1293A0EFFDD0E0FFD0EB
:0E848100E04DD001D002D003CF8FF00217DA09
:048DA7008E258F2660
:108DAB00AF2AAE29AD28AC277B007A00792B12882D
:108DBB001EE4F52F7E00E526252FFFEE3525FE74EC
:108DCB002B252FF8E6FD12962E052FE52FC39404C5
:028DDB0040E274
:018DDD002273
:0A8BCB008E2E8F2F8B308A318932F5
:108BD500E4F5377E00E52F2537FFEE352EFE74339D
:108BE5002537F9E4FAFB12943D0537E537C39404BC
:108BF50040E17B007A0079331275B1AB30AA31A917
:048C0500320218DA45
:048D34008E258F26D3
:108D3800AF2AAE29AD28AC271294897B007A007936
:108D48002B12881EE4F52F7E00E526252FFFEE3531
:108D580025FE742B252FF8E6FD12962E052FE52FFC
:058D6800C3940440E289
:018D6D0022E3
:0A8A89008E258F268B278A28892965
:108A9300E4F52E7E00E526252EFFEE3525FE742A0D
:108AA300252EF9E4FAFB12943D052EE52EC394041A
:108AB30040E17B007A00792A1275B112949BAB27AF
:078AC300AA28A9290218DA14
:091C5100010D00010C00010B0063
:03000B00027CD2A2
:107CD200C0E0C0F0C083C082C0D075D000C000C078
:0D7CE20001C002C003C004C005C006C007F9
:107CEF00758A2F758CF8050BE50C6002150CE50BEA
:107CFF0024FE601314601514601724FA6018240909
:107D0F007022128C47801D128B8C8018128C098068
:107D1F001312798C800E750B00050D129627129396
:047D2F00B81295A54C
:107D3300D007D006D005D004D003D002D001D000A4
:0B7D4300D0D0D082D083D0F0D0E0324E
:0795ED008F0CE50C70FC225D
:1094AD00438E80438901758CF8758A2FD2A9D28C91
:0194BD00228C
:1034CE0053617665204461746120454570726F6D5D
:1034DE00210D0A004C6F616444656661756C742140
:1034EE000D0A0068656C700D0A002E5379737465B1
:1034FE006D0D0A002E73797374656D0D0A00537984
:10350E00734D73670D0A0056657273696F6E0D0AFF
:10351E000053797374656D496E69740D0A005072AB
:10352E006F647563744944203C496431363E0D0A1C
:10353E0000426561747346697820203C666C6F6149
:10354E00743E0D0A00537973507266202020203C81
:10355E00307E313E0D0A005365744C616E6720203B
:10356E00203C307E313E2030456E203143680D0ABE
:10357E000053657454696D65202020203C483E2020
:10358E003C4D3E203C533E0D0A007379736D7367BC
:10359E000D0A005570506F776572446267203A25A8
:1035AE0062640D0A0045726173654E756D436E74EB
:1035BE003A256C750D0A0050726F64756374494438
:1035CE0020203A253030303034750D0A00426561C6
:1035DE0074734669782020203A25660D0A004C61E6
:1035EE006E67756167652020203A25730D0A00D637
:1035FE00D0CEC400456E676C697368005379735002
:10360E00726620202020203A2562640D0A0076651D
:10361E007273696F6E0D0A0073797374656D696EDE
:10362E0069740D0A0053797374656D20506172616F
:10363E006D20496E697420546F2044656661756C07
:10364E0074210D0A0070726F6475637469640050A2
:10365E00726F64756374203C3D2025750D0A004918
:10366E006E7075742049442052616E67653A303031
:10367E0030307E393939390D0A00626561747366EE
:10368E006978005379734265617473466978203C9A
:10369E003D2025660D0A00737973707266005379AA
:1036AE0073507266203C3D202562640D0A007365DE
:1036BE00746C616E67004C616E6775616765203C66
:1036CE003D202562640D0A0073657474696D650092
:1036DE00CAB1BCE43A2562303032753A25623030D8
:0C36EE0032753A2562303032750D0A004A
:031C5A0001110075
:108F8000E4900644F090064712190000000000E447
:108F9000900645F0A3F090064B1219003F800000A8
:108FA000E490064FF0A3F012960D1295920294CE23
:106E4F00E4FFFE12962B900647E0FCA3E0FDA3E0C3
:106E5F00FEA3E02401FFE43EFEE43DFDE43CFC9094
:106E6F0006471218F47D0A7CA07F807E001291796C
:106E7F00E4F524E5242482FFE433FE748C2524F505
:106E8F0082E43406F583E0FD12962E0524E524C333
:106E9F00940840DF900644E0FD7F8F7E0012962E0F
:106EAF00900645E0FCA3E0FD7F947E00129179905F
:106EBF000647E0FCA3E0FDA3E0FEA3E0F52A8E2940
:106ECF008D288C277F8A7E00128DA790064BE0FCC1
:106EDF00A3E0FDA3E0FEA3E0F52A8E298D288C27E1
:106EEF007F907E00128D3490064FE0FD7F8E7E00E6
:106EFF0012962E900650E0FD7F967E0012962E126F
:106F0F009573129634129257900650E060097BFFEA
:076F1F007A3479CE1286E7F7
:016F26002248
:107F3A00E4F524E5242482FFE433FE748C2524F935
:107F4A00E43406FA7B0112943D0524E524C394081F
:107F5A0040E17B017A0679447F8F7E0012943D7B53
:107F6A00017A0679457F947E001284317B017A0674
:107F7A0079477F8A7E00128BCB7B017A06794B7F09
:107F8A00907E00128A897B017A06794F7F8E7E0065
:107F9A0012943D7B017A0679507F967E0012943DB9
:097FAA0012955C12963102935409
:10859B00E4900658F0A3F0900656F0FB7A0079228F
:1085AB007F80FE128431E523640A7004E52264A007
:1085BB006017128F80126E4F900650E0600E7BFF9B
:1085CB007A3479E21286E78003127F3A900644E010
:1085DB00900643F0A37401F0900643F012929212AE
:0585EB00765B028938F7
:10919B00900657E004F0E0D3943B4006E4F0A3E0E4
:1091AB0004F0900658E0D3943B4006E4F0A3E004AF
:0291BB00F022A0
:108DDE000511E51124FE601714601714601F24FAA4
:108DEE00601E24097020900643E0701A0292AF02B2
:108DFE0078F0900656E0600EE4F0026E4F0294EDAD
:068E0E00E4F51112919B36
:018E1400223B
:108ACA0012950B1294ADD2AF128E4C12859B129353
:108ADA00FF12931E128F4F12923912962312956823
:108AEA00129527123ED3129613128E15E50DC394D2
:108AFA000A40EA74F6250DF50D128DDE127DCA8044
:018B0A00DC8E
:1025670078A67C057D017BFF7A3479F1121B8AEF0F
:10257700700C7BFF7A3479F81286E77F002278A601
:102587007C057D017BFF7A357902121B8AEF704843
:102597007BFF7A35790C1286E77BFF7A357915123E
:1025A70086E77BFF7A35791F1286E77BFF7A3579D5
:1025B7002C1286E77BFF7A35793F1286E77BFF7A15
:1025C7003579531286E77BFF7A3579651286E77B83
:1025D700FF7A35797F02297678A67C057D017BFF16
:1025E7007A357998121B8AEF60030226827BFF7A7D
:1025F7003579A1900644E0F5291286E77BFF7A3505
:1026070079B3900647E0FCA3E0FDA3E0FEA3E0F565
:102617002C8E2B8D2A8C291286E77BFF7A3579C57C
:10262700900645E0F529A3E0F52A1286E77BFF7AB5
:102637003579DB90064BE0FCA3E0FDA3E0FEA3E0C9
:10264700F52C8E2B8D2A8C291286E790064FE07B7E
:10265700FF60067A3579FD80047A3679028B298AFC
:102667002A892B7BFF7A3579EC1286E77BFF7A364E
:10267700790A900650E0F52902297678A67C057D2F
:10268700017BFF7A36791C121B8AEF700612717C68
:102697007F012278A67C057D017BFF7A3679261299
:1026A7001B8AEF7012128F809006567401F07BFF21
:1026B7007A36793302297678A67C057D017BFF7A05
:1026C700367953121B8AEF60030227517B017A0583
:1026D70079A6FD129222EF049005C6F024A6F9E42C
:1026E7003405FA7B01C0038B257526057527E5D0D0
:1026F70003124EE9EF7002FF229005C6E024A5F908
:10270700E43405FA7B0112937BEF7002FF229005F8
:10271700C6E0D3940F50279005E5E0FFA3E09006AD
:1027270045CFF0A3EFF09006567401F07BFF7A36A1
:10273700795D900645E0F529A3E0F52A80067BFF41
:102747007A36796D1286E77F012278A67C057D01AE
:102757007BFF7A367988121B8AEF70747B017A05C2
:1027670079A6FD129222EF049005C6F024A6F9E49B
:102777003405FA7B01C0038B267527057528EFD032
:1027870003122FC3EF7002FF229005C6E024A5F9BC
:10279700E43405FA7B0112937BEF7002FF22900568
:1027A700EFE0FCA3E0FDA3E0FEA3E0FF90064B12E1
:1027B70018F47BFF7A36799190064BE0FCA3E0FD95
:1027C700A3E0FEA3E0F52C8E2B8D2A8C2902297617
:1027D70078A67C057D017BFF7A3679A5121B8AEFE7
:1027E70070557B017A0579A6FD129222EF049005B8
:1027F700C6F024A6F9E43405FA7B01C0038B2675DD
:1028070027057528E2D00312653DEF7002FF22907D
:1028170005C6E024A5F9E43405FA7B0112937BEFA2
:102827007002FF229005E2E0900650F07BFF7A36B7
:1028370079ACF52902297678A67C057D017BFF7A9C
:102847003679BC121B8AEF70557B017A0579A6FD94
:10285700129222EF049005C6F024A6F9E43405FA93
:102867007B01C0038B267527057528E2D003126507
:102877003DEF7002FF229005C6E024A5F9E4340578
:10288700FA7B0112937BEF7002FF229005E2E09042
:10289700064FF07BFF7A3679C4F52902297678A6A8
:1028A7007C057D017BFF7A3679D6121B8AEF6003A0
:1028B70002297C7B017A0579A6FD129222EF04900A
:1028C70005C6F024A6F9E43405FA7B01C0038B267C
:1028D7007527057528E2D00312653DEF7002FF22C8
:1028E7009005C6E024A6F9E43405FA7B01C0038B02
:1028F700267527057528E3D00312653DEF7002FFA3
:10290700229005C6E024A6F9E43405FA7B01C0034A
:102917008B267527057528E4D00312653DEF7002F5
:10292700FF229005C6E024A5F9E43405FA7B0112DD
:10293700937BEF7002FF229005E3E0FFC3943C50C6
:1029470034A3E0FEC3943B502C9005E2E090065977
:10295700F0900658EFF0900657EEF07BFF7A367945
:10296700DE900659E0F529900658E0F52A8E2B12DD
:0829770086E77F01227F0022A8
:1000260000000000000000000000000000000000CA
:10003600000000F80000000000000033300000005F
:10004600000C30C000000000000000010638C000AF
:1000560040C07840C0784000043F04043F040400D8
:1000660000FEFCF8F0E0C080007F3F1F0F07030191
:10007600F008F000E018000000211C031E211E00FD
:1000860000F00888700000001E2123241927211083
:10009600000C30C000000000000000010638C0005F
:1000A600000000E0180402000000000718204000CD
:1000B60000020418E00000000040201807000000BD
:1000C600404080F0804040000202010F0102020021
:1000D600000000F0000000000101011F0101010005
:1000E600000000000000000080B07000000000006A
:1000F60000000000000000000001010101010101F3
:100106000000000000000000003030000000000089
:10011600000000008060180400601806010000005E
:1001260000E010080810E000000F102020100F005B
:10013600001010F8000000000020203F20200000E2
:10014600007008080888700000302824222130003A
:1001560000300888884830000018202020110E0042
:100166000000C02010F8000000070424243F2400EB
:1001760000F80888880808000019212020110E00C0
:1001860000E0108888180000000F112020110E00D2
:1001960000380808C83808000000003F00000000CA
:1001A6000070880808887000001C222121221C008B
:1001B60000E010080810E0000000312222110F00B4
:1001C6000030300000000000000C0C0000000000B1
:1001D60000000080000000000000806000000000B9
:1001E60000008040201008000001020408102000D2
:1001F600404040404040400004040404040404001D
:1002060000081020408000000020100804020100B1
:10021600007048080808F0000000003036010000B1
:10022600C030C828E810E0000718272423140B0064
:100236000000C038E0000000203C230202273820DE
:1002460008F8888888700000203F202020110E00C2
:10025600C0300808080838000718202020100800B9
:1002660008F808080810E000203F202020100F00A2
:1002760008F88888E8081000203F2020232018006E
:1002860008F88888E8081000203F200003000000D6
:10029600C03008080838000007182020221E020077
:1002A60008F808000008F808203F210101213F2036
:1002B600000808F8080800000020203F2020000061
:1002C60000000808F8080800C08080807F00000051
:1002D60008F888C028180800203F2001263820008A
:1002E60008F8080000000000203F202020203000F1
:1002F60008F8F800F8F80800203F003F003F20000B
:1003060008F830C00008F808203F200007183F0012
:10031600E01008080810E0000F10202020100F0041
:1003260008F808080808F000203F21010101000034
:10033600E01008080810E0000F18242438504F0079
:1003460008F8888888887000203F2000030C302039
:1003560000708808080838000038202121221C0077
:10036600180808F8080818000000203F20000000C0
:1003760008F808000008F808001F202020201F00A9
:100386000878880000C83808000007380E01000009
:10039600F80800F80008F800033C0700073C0300D3
:1003A600081868808068180820302C03032C302039
:1003B6000838C800C83808000000203F20000000A8
:1003C60010080808C8380800203826212020180000
:1003D600000000FE020202000000007F40404000D4
:1003E600000C30C000000000000000010638C0000C
:1003F60000020202FE000000004040407F000000B4
:1004060000000402020204000000000000000000D8
:1004160002020202020202028080808080808080C6
:1004260000020204000000000000000000000000BE
:1004360000008080808000000019242222223F20B4
:1004460008F8008080000000003F112020110E00F7
:100456000000008080800000000E11202020110086
:10046600000000808088F800000E112020103F2038
:100476000000808080800000001F222222221300BC
:10048600008080F0888888180020203F2020000007
:100496000000808080808000006B949494936000BC
:1004A60008F8008080800000203F210000203F20C7
:1004B60000809898000000000020203F20200000C7
:1004C600000000809898000000C08080807F0000B7
:1004D60008F8000080808000203F24022D30200094
:1004E600000808F8000000000020203F202000003F
:1004F6008080808080808000203F20003F20003F59
:100506008080008080800000203F210000203F2066
:100516000000808080800000001F202020201F0017
:10052600808000808000000080FFA12020110E0046
:100536000000008080808000000E112020A0FF8037
:10054600808080008080800020203F2120000100E4
:100556000000808080808000003324242424190039
:10056600008080E0808000000000001F2020000046
:100576008080000000808000001F202020103F2087
:10058600808080000080808000010E300806010017
:1005960080800080008080800F300C030C300F00BC
:1005A60000808000808080000020312E0E312000E7
:1005B600808080000080808080818E701806010017
:1005C60000808080808080000021302C2221300035
:1005D60000000000807C020200000000003F404056
:1005E60000000000FF00000000000000FF00000007
:1005F6000002027C800000000040403F0000000036
:10060600002030F8FCF8302000000003030300004F
:10061600000000C0C0C0000000040C1F3F1F0C04F7
:10062600000000406070787C7E7C7870604000003E
:10063600109453321E325210007E4242427E000017
:10064600000000FF49494949494949FF00000000A7
:100656001060028C0008F94EC820584F48C80800A0
:1006660004047E8140300F407F0044847F040400F0
:100676000000F888888888FF88888888F800000045
:1006860000001F080808087F888888889F80F00077
:1006960080828282828282E2A2928A868280800020
:1006A600000000000040807F000000000000000005
:1006B6002424A4FEA3220022CC0000FF0000000098
:1006C600080601FF00010404040404FF02020200FC
:1006D600101010FF109008888888FF888888080006
:1006E6000444827F01808040432C1028468180008C
:1006F60004040484E43C2724242424E4040404009D
:1007060004020100FF0909090949897F0000000068
:1007160000FE225A8600FE9292929292FE000000FD
:1007260000FF04080700FF4020030C14224140008C
:100736000080402018068000071820408000000036
:1007460001002070282621202024386000010100A5
:10075600001012929292929292121202FE000000E1
:100766000000003F101010103F0040807F00000086
:1007760008CC4A49484ACC18007F88888482E00021
:1007860000FF121252927F00007E88888482E00069
:10079600886423A2A6AAA2BAA4A3A2262AA26200B9
:1007A600000000FF4A4A4A4A4A4A4BF80000000045
:1007B600102C2424A4A465A624242424A4340C00E8
:1007C60040494929241452897F040A111020200027
:1007D6004458C12610C03E1232529F925232060031
:1007E600048485945D56242525554C4485050500CD
:1007F6002030AC633000FC2425262424243C000051
:1008060022672212523807FF097F093F89FF00003D
:10081600808080BEA2A2A2A2A2A2A2BE80808000E8
:1008260000000006050404044484443C0000000063
:1008360000001011161010F0101014131000000014
:100846008181414121110D030D1121414181810019
:1008560040404242424242FE424242424240400000
:10086600000000000040807F000000000000000043
:100876004020F807F0A0904C5724A4544C808000E8
:100886000000FF001F809252492924120800000030
:10089600000202C2020202FE8282828282020000FC
:1008A6004040407F4040407F404040404040400004
:1008B600404042CC0040A09E8282829EA020200022
:1008C6000000003F908840432C102846418080005D
:1008D600001715D55557557D555755D51517000091
:1008E6004040407F555555555555557F4040400031
:1008F600404042CC0000FC24A4242222A362000033
:100906000040201F20584750484542454850400067
:100916000000FE0202F2121212F20202FE000000B3
:1009260000007F2020272424242720207F00000089
:100936004042CC0000829292F29E9292F282800015
:1009460000007F201000FC4444444444FC000000A6
:1009560004042424242425262424242424040400F2
:100966000000F9494949494949494949F9000000FE
:100976000000F010101010FF10101010F000000012
:1009860000000F04040404FF040404040F00000024
:10099600040404C44F4444F444444FC4040404000F
:1009A6008484444724140C070C142447448484008C
:1009B60008080838C808090E0808C83808080800D2
:1009C6008080404020110A040A11204040808000A7
:1009D6008080848484FE82838280FF808080800081
:1009E60000804020180700000000FF000000000003
:1009F6002030AC6330000202FE0202625AC60000DA
:100A0600226722121240308F80432C102C43800024
:100A160000FC848484FC001010101010FF101000DD
:100A2600003F1010103F0000010640807F000000CC
:100A360000F8010600F0121212F2020202FE000095
:100A460000FF0000001F1111111F0040807F0000F1
:100A5600000000FE82828282828282FE0000000006
:100A6600000000FF40404040404040FF00000000C2
:100A76000004FF242424FF0400FE222222FE00009C
:100A860088482F090919AF48300F0242827F0000BB
:100A960080828282FE8282828282FE8282828000BE
:100AA600008040300F0000000000FF000000000042
:100AB60000001011161010F0101014131000000092
:100AC6008181414121110D030D1121414181810097
:100AD6001060028C00FE02F202FE00F800FF000029
:100AE60004047E018047300F10270047807F0000F6
:100AF600404042CC009090909090FF10111610004C
:100B06000000003F1028603F1010010E3040F0003A
:100B160004040404F49495969494F40404040400E0
:100B260000FE02027A4A4A4A4A4A7A0282FE0000D5
:100B3600008060F80700FC848484FE828382800043
:100B4600010000FF0000FF402000418E3040F80009
:100B560004040484E43C2724242424E40404040038
:100B660004020100FF0909090949897F0000000004
:100B7600884828090A28488880708F0808F80800DD
:100B86004020110A040B30804020130C33408000B3
:100B96000004047454545556545454740404000008
:100BA600848341211D05050505057D818185E300B9
:100BB6000000FC242424FC252624FC2424240400F0
:100BC60040308F80844C55252525554C80808000EB
:100BD60020000810FF002621000810FF0036220022
:100BE6000810FF004623000810FF005624000810D6
:100BF600FF006625000810FF007626000810FF009B
:100C06008627000810FF009628000810FF00A62976
:100C1600000810FF00B62A000810FF00C62B0008C7
:100C260010FF00D62C000810FF00E62D000810FF6C
:100C360000F62E000810FF01062F000810FF01160F
:100C460030000810FF012631000810FF013632007F
:100C56000810FF014633000810FF01563400081043
:100C6600FF016635000810FF017636000810FF0107
:100C76008637000810FF019638000810FF01A639D4
:100C8600000810FF01B63A000410FF01C63B000839
:100C960010FF01D63C000810FF01E63D000810FFDA
:100CA60001F63E000810FF02063F000810FF02167C
:100CB60040000810FF022641000810FF02364200DD
:100CC6000810FF024643000810FF025644000810B1
:100CD600FF026645000810FF027646000810FF0274
:100CE6008647000810FF029648000810FF02A64932
:100CF600000810FF02B64A000810FF02C64B0008A3
:100D060010FF02D64C000810FF02E64D000810FF47
:100D160002F64E000810FF03064F000810FF0316E8
:100D260050000810FF032651000810FF033652003A
:100D36000810FF034653000810FF0356540008101E
:100D4600FF036655000810FF037656000810FF03E0
:100D56008657000810FF039658000810FF03A6598F
:100D6600000810FF03B65A000810FF03C65B000810
:100D760010FF03D65C000810FF03E65D000810FFB5
:100D860003F65E000810FF04065F000810FF041655
:100D960060000810FF042661000810FF0436620098
:100DA6000810FF044663000810FF0456640008108C
:100DB600FF046665000810FF047666000810FF044D
:100DC6008667000810FF049668000810FF04A669ED
:100DD600000810FF04B66A000810FF04C66B00087E
:100DE60010FF04D66C000810FF04E66D000810FF23
:100DF60004F66E000810FF05066F000810FF0516C2
:100E060070000810FF052671000810FF05367200F5
:100E16000810FF054673000810FF055674000810F9
:100E2600FF056675000810FF057676000810FF05B9
:100E36008677000810FF059678000810FF05A6794A
:100E4600000810FF05B67A000810FF05C67B0008EB
:100E560010FF05D67C000810FF05E67D000810FF90
:100E660005F6A1FC0810FF0606A1FD0810FF0616F0
:100E760080000810FF0626D6C71010FF0636D3CE10
:100E86001010FF0656B5E71010FF0676D7D31010E0
:100E9600FF0696BFC61010FF06B6BCBC1010FF06B4
:100EA600D6D3D01010FF06F6CFDE1010FF0716B906
:100EB600AB1010FF0736CBBE1010FF0756C4DC1070
:100EC60010FF0776B9DC1010FF0796BCD21010FF92
:100ED60007B6C6C51010FF07D6B1E01010FF07F61B
:100EE600BAC51010FF0816B9D81010FF0836D3DAA5
:100EF6001010FF0856D0DE1010FF0876D5FD101032
:100F0600FF0896C9E81010FF08B6D6C31010FF08F0
:100F1600D6B7B51010FF08F6BBD81010FF0916D3C8
:100F2600EF1010FF0936D1D41010FF0956D6D01095
:100F360010FF0976D3A21010FF0996CEC41010FF39
:100F460009B6C9FD1010FF09D6BCB61010FF09F688
:100F5600CAB11010FF0A16BCE41010FF0A36C8D535
:100F66001010FF0A56C6DA1010FF0A76BFAA101034
:100F7600FF0A96B9D81010FF0AB6B2E21010FF0A9F
:100F8600D6CAD41010FF0AF6B8DF1010FF0B16B53C
:100F9600CD1010FF0B36D3D01010FF0B56D0A71074
:100FA60010FF0B76C1C11010FF0B96B6C81010FFCC
:090FB6000BB60000081000000059
:101C5D00510406000000000000000000000000001C
:101C6D000000000064000000000000000000000003
:101C7D000000000000000000000000000000000057
:101C8D000000000000000000000000000000000047
:101C9D000000000000000000000000000000000037
:101CAD000000000000000000000000000000000027
:04913200F05403FFF3
:10913600EF14600E14600F146010240370117F206A
:10914600800A7F5F80067F2D80027F3D12957E22FA
:10541D007F0D12957E7F0A12957EE4900632F0E4A0
:10542D00900631F0900631E0FFC39480502AA3E03E
:10543D0075F080A42400F582E5F03400F583E58253
:10544D002FF582E43583F583E0900633F012913227
:10545D00900631E004F080CC7F0D12957E7F0A120C
:10546D00957EE4900631F0900631E0FFC3948050B4
:10547D002FA3E075F080A42400F582E5F03400F54B
:10548D0083E5822FF582E43583F583E0900633F0D2
:10549D00E01313543F129132900631E004F080C7AF
:1054AD007F0D12957E7F0A12957EE4900631F09065
:1054BD000631E0FFC39480502EA3E075F080A42444
:1054CD0000F582E5F03400F583E5822FF582E435B1
:1054DD0083F583E0900633F0E0C4540F12913290BF
:1054ED000631E004F080C87F0D12957E7F0A12957B
:1054FD007EE4900631F0900631E0FFC39480503089
:10550D00A3E075F080A42400F582E5F03400F58366
:10551D00E5822FF582E43583F583E0900633F0E0E4
:10552D00C413135403129132900631E004F080C677
:10553D007F0D12957E7F0A12957E900632E004F063
:09554D00E0C39408500302542C41
:015556002232
:10723B00E4900635F0900635E0FFC3955940030204
:10724B0072F1EF2554FD2417F582E43404F583E045
:10725B00FCE556AE557803CEC313CE13D8F9780799
:10726B00C333CE33CED8F92400F58274003EF583B8
:10727B00C083C082900635E07E002554FFEE355367
:10728B00FED082D083E5822FF582E5833EF583EC39
:10729B00F074972DF582E43404F583E0FDE556AEEA
:1072AB00557803CEC313CE13D8F97807C333CE3337
:1072BB00CED8F92480F58274003EF583C083C0825A
:1072CB00900635E07E002554FFEE3553FED082D07C
:1072DB0083E5822FF582E5833EF583EDF09006354D
:0672EB00E004F002724015
:0172F100227A
:0D954300EE7003EF24F07BFF7A0B79D62247
:1070B9008B628A638964AB56AA57A958121941127F
:1070C9009275EFAB56AA57A958601F1219411215AC
:1070D900FBF565900001121614F566AB56AA57A97F
:1070E90058900001E475F00280171219411215FB3E
:1070F900F565E4F566AB56AA57A95890000175F0F5
:107109000112178DAB62AA63A9641215FBFF605FB8
:107119006565704E90000112161465667044900002
:1071290002121614AB5CAA5DA95E121663AB62AAC1
:1071390063A964900003121614AB5FAA60A96112D7
:107149001663AB62AA63A9649000041219B0C00364
:10715900C002C001AB59AA5AA95B1219617E007F0E
:10716900012274072564F564E43563F5638095E4C9
:02717900FEFF17
:01717B0022F1
:10836D0074172FF582E43404F58374FFF074972F9E
:10837D00F582E43404F58374FFF07E01EEC39B5067
:10838D001FEF2EFC2417F582E43404F5837403F0FB
:10839D0074972CF582E43404F58374C0F00E80DC00
:1083AD00EF2BFE2416F582E43404F58374FFF0748C
:1083BD00962EF582E43404F58374FFF0E4F556F55A
:0183CD005758
:0183CE00228C
:0A47E3008F538D548B558A56895769
:1047ED00E558C394085003755808E4F55BE55BC3C1
:1047FD009558400302494BE55A30E242AB55AA5653
:10480D00A957855B82758300121614F4FFE55325B5
:10481D005BFE2417F582E43404F583EFF0E55B7C51
:10482D000029F9EC3AFAE55829F9EC3AFA1215FB98
:10483D00F4FF74972EF582E43404F583EFF0E55A16
:10484D0030E056E553255BFF2417F582E43404F57B
:10485D0083C083C082E0FEAB55AA56A957855B8203
:10486D00758300121614FDEE4DD082D083F074972F
:10487D002FF582E43404F583C083C082E0FFE55B4D
:10488D007C0029F9EC3AFAE55829F9EC3AFA1215B7
:10489D00FBFEEF4ED082D083F0E55A30E156E55362
:1048AD00255BFF2417F582E43404F583C083C082B1
:1048BD00E0FEAB55AA56A957855B8275830012168B
:1048CD0014FDEE5DD082D083F074972FF582E43421
:1048DD0004F583C083C082E0FFE55B7C0029F9EC21
:1048ED003AFAE55829F9EC3AFA1215FBFEEF5ED0CB
:1048FD0082D083F0E55A30E340AB55AA56A95785CF
:10490D005B82758300121614FFE553255BFE241799
:10491D00F582E43404F583EFF0E55B7C0029F9ECD6
:10492D003AFAE55829F9EC3AFA1215FBFF74972E6D
:10493D00F582E43404F583EFF0055B0247FAE4F504
:03494D0054F559C5
:014950002244
:0795F400EF600312541D2279
:1089C000E4900632F0E4900631F0900631E0FFC307
:1089D00094805024A3E075F080A42400F582E5F093
:1089E0003400F583E5822FF582E43583F583E4F0E6
:1089F000900631E004F080D2900632E004F0E0B45A
:028A000008C3A9
:018A02002251
:1092CC00AF05E48FF01217DA900002E4852BF01250
:0C92DC0017F9900004E4852CF00217F94B
:10690200E4900633F0F550755100755238853553D1
:106912008536548537558550568551578552587B53
:10692200017A047906128FDE900634E52FF0AF3338
:10693200AE321295438B478A488949754A01754B95
:1069420004754C06AB4AAA4BA94C1215FB60737531
:10695200560075570075584A755900755A00755B8F
:106962004D755C01755D06755E31755F017560067A
:10697200756132AB47AA48A9491270B9EF4EAF2FE1
:10698200AD316018AB4DAA4EA94F900631E0F558D3
:10699200A3E0F55985345A1247E38010AB338B5686
:1069A20085345712836D900631E533F0900631E05D
:1069B200FF252FF52FE4352EF52E900633E02FF02C
:1069C2008082900634E0752E00F52F78537C007D8E
:1069D200007B007A00792E7E007F061215D5900684
:0C69E20033E0F55912723B900633E0FFE1
:0169EE002286
:10750400A1FC00A1FD004B657956616C3A25640D20
:107514000A0068656C700D0A002E4D656E750D0AC3
:10752400002E6D656E750D0A004D656E754D7367A1
:107534000D0A004D656E75506720203C307E256233
:10754400643E20314C20324320335620344D2035C4
:10755400530D0A004D656E75446973203C307E31CD
:107564003E2044697320427566205072696E7466C9
:107574000D0A006D656E756D73670D0A00507266B5
:10758400546F436F6D3A2562640D0A006D656E7524
:107594007067006D656E7564697300507266546F30
:0D75A400436F6D203C3D202562640D0A0000
:1020750043067D0000004306820000004106800003
:10208500420677003F41068100410676004106730E
:09209500004106740041067500CB
:108E820090062D74FFF0A37434F0A3749EF0900644
:108E92002DE0FBA3E0FAA3E0F91215FB6010B50781
:108EA200012290062EE475F0081216FE80E07B0087
:048EB2007A007900C9
:018EB6002299
:06960700900681E0FF2245
:025557008B23A4
:10555900E490062BF0A3F0900681EFF0900676ED2B
:10556900F0128E8290067DEBF0A3EAF0A3E9F090A9
:105579000001121614FFEDC39F5007900680EDF04D
:105589008005E4900680F090067DE0FBA3E0FAA395
:10559900E0F99000021219B0900680E075F00FA4AE
:1055A90029F9EA35F0FA900682EBF0A3EAF0A3E9CB
:1055B900F012848FEF6061900680E004F090067D20
:1055C900E0FBA3E0FAA3E0F9900001121614FF90A2
:1055D9000680E0C39F4002E4F09000021219B090E7
:1055E9000680E075F00FA429F9EA35F0FA900682F1
:1055F900EBF0A3EAF0A3E9F090062CE004F09006A2
:105609007DE0FBA3E0FAA3E0F9900001121614FF74
:1056190090062CE0C39F4099900682E0FBA3E0FA34
:10562900A3E0F9900007121755FF90062BF09000A0
:1056390009121755FDACF02FFFE43CFED3EF943F60
:10564900EE9400401290062BE02D14900678F02479
:10565900C1900677F08009E4900677F0243FA3F023
:10566900E523601090067DE0FBA3E0FAA3E0F9AD25
:0456790023123CF4C8
:01567D00220A
:106AD500E490062BF0A3F09006B4F0900680E00455
:106AE500F090067DE0FBA3E0FAA3E0F99000011227
:106AF5001614FF900680E0C39F4002E4F090067DE7
:106B0500E0FBA3E0FAA3E0F99000021219B09006A9
:106B150080E075F00FA429F9EA35F0FA900682EBCA
:106B2500F0A3EAF0A3E9F0900007121755FF9006CD
:106B35002BF0900677E0FEEFC39E500E90062BE0FB
:106B4500900677F0243FA3F0803E900682E0FBA3F9
:106B5500E0FAA3E0F9900009121755FFAEF0900690
:106B65002BE02FFDE43EFC900678E02401FBE433A6
:106B7500FAD3ED9BEC9A401090062BE02F1490066B
:106B850078F024C1900677F012848FEF6023900689
:106B95002CE004F090067DE0FBA3E0FAA3E0F99079
:106BA5000001121614FF90062CE0C39F5003026AE1
:016BB500E0FF
:016BB60022BC
:10634700E490062DF09006B4F0900682E0FBA3E0FF
:10635700FAA3E0F990000712175590062BF0900664
:1063670080E0600414F0801690067DE0FBA3E0FA5D
:10637700A3E0F990000112161414900680F090061D
:106387007DE0FBA3E0FAA3E0F99000021219B090B8
:106397000680E075F00FA429F9EA35F0FA90068235
:1063A700EBF0A3EAF0A3E9F0900007121755FF906E
:1063B700062CF090062BE0FEEFD39E40409006821D
:1063C700E0FBA3E0FAA3E0F9900009121755FFAE2E
:1063D700F090062CE02FFDE43EFC900678E02401C7
:1063E700FBE433FAD3ED9BEC9A402990062CE02F7F
:1063F70014900678F024C1900677F08017900677FE
:10640700E0FF90062CE0FEC39F5009900677EEF060
:10641700243FA3F012848FEF602390062DE004F051
:1064270090067DE0FBA3E0FAA3E0F99000011216C5
:0D64370014FF90062DE0C39F500302635038
:016444002235
:10848F00900682E0FBA3E0FAA3E08B278A28F52968
:0B849F0090067DE0FBA3E0FAA3E0F9EB
:1084AA009006A97408F0E4A3F01215FB9006ACF04C
:1084BA00AB27AA28A92990000C1219B0EA494B60E7
:1084CA0015AB27AA28A9298B0E8A0F891090000CB0
:1084DA001219B0121A069006AAE060037F01227FE1
:0284EA0000226E
:108A03009006A97408F0E4A3F01215FB9006ACF0ED
:108A1300AB2AAA2BA92C90000C1219B0EA494B607F
:108A230015AB2AAA2BA92C8B0E8A0F891090000C48
:108A33001219B0121A069006AAE030E1037F012250
:038A43007F00228F
:063CF4008B248A258926BD
:103CFA00E490062FF0A3F090000112161490062DFE
:103D0A00F09000021219B0900670EBF0A3EAF0A34B
:103D1A00E9F0ED640260031289C0E490062EF09087
:103D2A00062DE0FFA3E0C39F4003023E4B900670BE
:103D3A00E0FBA3E0FAA3E08B2A8A2BF52CAB24AA9A
:103D4A0025A926128A03EF6003023E389006A97459
:103D5A0002F0900670E0FBA3E0FAA3E0F9C003C00A
:103D6A0002C001900682E0FBA3E0FAA3E0F9D08248
:103D7A00D083D0E06B7008E965827003EA658370CE
:103D8A00079006AA04F08005E49006AAF09006704F
:103D9A00E0FBA3E0FAA3E0F9900005121755FF90A3
:103DAA0006ADE5F0F0A3EFF0900007121755FF906B
:103DBA000677E0FDC3EF9DFEE5F094009006AFF0B4
:103DCA00A3CEF0900009121755FF9006B1E5F0F066
:103DDA00A3EFF0900007121755FFAEF090062FE000
:103DEA00FDC3EF9DEE94005002EFF0900670E0FBE9
:103DFA00A3E0FAA3E0F9900007121755FFAEF0907E
:103E0A000630E0FDD3EF9DEE94004002EFF0D39030
:103E1A0006B0E0943F9006AFE094004002800F8B1A
:103E2A000E8A0F891090000C1219B0121A06900609
:103E3A002EE004F0900671E475F00F1216FE023DB2
:103E4A0029900677E0FF90062FE0C39F50337B014D
:103E5A007A047900E4F52B752C107D781292CC78CF
:103E6A002E7C007D007B017A0479007E007F061299
:103E7A0015D57534087535FF7536757537041269A9
:103E8A0002900678E0FF900630E0D39F40337B0132
:103E9A007A047900752B30752C107D781292CC78C3
:103EAA002E7C007D007B017A0479007E007F061259
:103EBA0015D57534087535FF753675753707126966
:093ECA000290067BE0FF0295F472
:025D20008F22D0
:105D2200900674E0900673B52205E004F0800774D3
:105D320001F0A3E522F09006A97401F090067DE03F
:105D4200FBA3E0FAA3E0F91215FB9006ACF0900673
:105D5200AAE522F0900673E09006ABF0900682E08E
:105D6200FBA3E0FAA3E0F98B0E8A0FF51090000C6A
:105D72001219B0121A069006A9E064037031128952
:105D8200C0900677E0FF90067DE0FBA3E0FAA3E077
:105D9200F9900006EF121675900678E0900007124F
:105DA20016759006AAE0FFA3E0FDE4FB125557909A
:105DB20006A9E06404704690067DE0FBA3E0FAA326
:105DC200E0F990000512161460331289C090067D26
:105DD200E0FBA3E0FAA3E0F9900006121614900685
:105DE20077F0900007121614900678F090000512D2
:105DF2001614FF9006AAE0FDE4FB1255579006A97F
:105E0200E0B40115A3E0F522E52224FC6008047049
:105E120008126AD5800312634790067DE0FBA3E077
:095E2200FAA3E0F97D01023CF451
:1093FF00E4900679F0A3F0A3F0A37403F07B01E4EB
:06940F00FD7F010255572C
:107DCA00900675E004F0E0C3940A4031E4F09006AE
:107DDA007CE0600214F0129607BF010E90067CE068
:107DEA0070087B01FD7F04125557129607BF040DD8
:107DFA0090067AE06007E4F090065604F078BCE654
:107E0A006038E4F678BDE690062AF0E4FB7D057F4B
:107E1A0001129535E4FB7D057F0112946390062AD1
:107E2A00E0FF125D20900679E0600F7BFF7A75799A
:0A7E3A000A90062AE0F5291286E7F7
:017E4400221B
:1052D70078A67C057D017BFF7A757916121B8AEF0C
:1052E700700C7BFF7A75791D1286E77F002278A6FE
:1052F7007C057D017BFF7A757925121B8AEF701E6D
:105307007BFF7A75792D1286E77BFF7A757937757A
:1053170029051286E77BFF7A75795802541478A617
:105327007C057D017BFF7A757977121B8AEF700FF9
:105337007BFF7A75798190067BE0F5290254147812
:10534700A67C057D017BFF7A757990121B8AEF7029
:10535700587B017A0579A6FD129222EF049005C6C3
:10536700F024A6F9E43405FA7B01C0038B267527E0
:10537700057528E2D00312653DEF7002FF22900504
:10538700C6E024A5F9E43405FA7B0112937BEF709C
:1053970002FF229005E2E0FF600FC39406500A7BEC
:1053A70001E4FD1255577F012278A67C057D017B1C
:1053B700FF7A757997121B8AEF70587B017A057906
:1053C700A6FD129222EF049005C6F024A6F9E43454
:1053D70005FA7B01C0038B267527057528E2D003E4
:1053E70012653DEF7002FF229005C6E024A5F9E49F
:1053F7003405FA7B0112937BEF7002FF229005E2DE
:10540700E090067BF07BFF7A75799FF5291286E796
:065417007F01227F00224C
:107E4500253034640025312E3566002573004E3A01
:107E55002530303030347500563A257300533A25B5
:107E65007300543A25730045453A2530303030309B
:107E7500356C75004E3A2573002A2A2A2A2A2A2AA1
:107E85002A2A2A2A2A2A2A2A2A003D3D3D3D3D3D05
:107E95003D3D3D3D3D3D3D3D3D3D0025302E33665F
:107EA500005F0025626400256300000203040506E7
:0B7EB500070800FF339C01FF33A20808
:10209E004106A8004106B3004106B4004106A70060
:1084EC001215D5752A04AB0EAA0FA9101219418BBF
:0584FC002B8A2C892DE4
:1085010090064FE0782E7C007D007B007A00792474
:108511007E007F0660141215D5852A34AB2BAA2C58
:10852100A92D9000031219B0800F1215D5852A3498
:10853100AB2BAA2CA92D1219418B358A36893712FA
:03854100690222AA
:0872F2008D278B248A258926D3
:1072FA0012172AFFAEF0900630EEF0A3EFF0C39417
:10730A0010EE9427400BE024F0F0900630E034D8D9
:10731A00F0755CFF755D7E755E45900630E0F55F41
:10732A00A3E0F5607B017A06793212215474322582
:10733A0027F582E43406F583E0900642F0C36480C0
:10734A0094B050037430F0E52824FE6016047024CB
:10735A00900642E004F0E0D3648094B94016743099
:10736A00F08011900642E014F0E0C3648094B050BB
:10737A00037439F0900642E0FF74322527F582E45F
:10738A003406F583EFF07B017A067932127456AB34
:0B739A0024AA25A926EE8FF00217DAC6
:086D73008D278B248A25892657
:106D7B001218BA8F2C8E2B8D2A8C29E4FFFEFDFC6A
:106D8B00AB2CAA2BA92AA82912125D5013AF2CAE3B
:106D9B002BAD2AAC291212CA8F2C8E2B8D2A8C2943
:106DAB00E4FFFE7D207C41AB2CAA2BA92AA829123B
:106DBB00125D401AAF2CAE2BAD2AAC29E4FBFA794D
:106DCB00207841120FC28F2C8E2B8D2A8C29755C4B
:106DDB00FF755D7E755E4A852C62852B61852A6009
:106DEB0085295F7B007A00792D122154E5276004F9
:106DFB00242E8004742D2527F8E6F53DE52824FE86
:106E0B00601304701E053DD3E53D648094B94013B7
:106E1B00753D30800E153DC3E53D648094B0500345
:106E2B00753D39E5276004242E8004742D2527F841
:106E3B00A63D7B007A00792D128866AB24AA25A982
:046E4B00260218DA29
:108107009006A9E014603914705E9006AAE07824FE
:108117007C007D007B017A0679AD7E007F066008D2
:108127001215D5752A1480061215D5752A181284CA
:10813700F29006AEE02FF09006ADE03400F0802814
:108147009006AAE024FB70209006A97403F0AB0EFA
:10815700AA0FA91090000B1216149006AAF090000F
:0B816700041216149006ABF07F0122FA
:107B4D009006A9E01460391470799006AAE07824A3
:107B5D007C007D007B017A0679AD7E007F06600892
:107B6D001215D5752A1480061215D5752A1812848A
:107B7D00F29006AEE02FF09006ADE03400F08043B9
:107B8D009006AAE024FB703B9006A97404F0AB0E9E
:107B9D00AA0FA91090000B1216149006AAF09000CF
:107BAD00041216149006ABF0129607EF64056006EA
:107BBD00129607BF020D9006B3E06007E4F0900641
:067BCD007A04F07F0122A2
:104C2A009006A9E0147003024D69146003024D89CD
:104C3A007B017A047900E4F52B752C107D18129209
:104C4A00CC1295C38B388A39893A782E7C007D003C
:104C5A007B017A0479007E007F061215D575340827
:104C6A007535FF75367E7537501269027B017A04F5
:104C7A007900752B10752C107D201292CC1295CAD2
:104C8A008B388A39893A782E7C007D007B017A0438
:104C9A0079007E007F061215D57534087535FF75C3
:104CAA00367E7537501269027B017A047900752BBA
:104CBA0020752C10E4FD1292CC1295BC8B388A39DF
:104CCA00893A782E7C007D007B017A0479007E0087
:104CDA007F061215D57534087535FF75367E75371A
:104CEA00501269027B017A047900752B30752C10F9
:104CFA007D081292CC782E7C007D007B017A0479A3
:104D0A00007E007F061215D57534087535FF753695
:104D1A007E753753900645E0F538A3E0F5391269F8
:104D2A00027B017A047900752B30752C107D5212A2
:104D3A0092CC1295D18B388A39893A782E7C007DAB
:104D4A00007B017A0479007E007F061215D575343E
:104D5A00087535FF75367E75375D126902802090B9
:104D6A0006A97404F0AB0EAA0FA91090000B121634
:104D7A00149006AAF09000041216149006ABF07F65
:024D8A00012204
:104ABE009006A9E0147003024C07146003024C2701
:104ACE007B017A047900E4F52B752C10FD1292CC43
:104ADE001295B58B388A39893A782E7C007D007B09
:104AEE00017A0479007E007F061215D5753408759B
:104AFE0035FF75367E7537621269027B017A04794D
:104B0E0000752B10752C10E4FD1292CC1295DF8BD4
:104B1E00388A39893A782E7C007D007B017A0479B7
:104B2E00007E007F061215D57534087535FF753673
:104B3E007E7537671269027B017A047900752B2026
:104B4E00752C10E4FD1292CC1295D18B388A3989CE
:104B5E003A782E7C007D007B017A0479007E007FFE
:104B6E00061215D57534087535FF75367E75375DA9
:104B7E001269027B017A047900752B20752C107D49
:104B8E00401292CC782E7C007D007B017A04790055
:104B9E007E007F061215D57534087535FF75367E85
:104BAE0075376C900647E0FCA3E0FDA3E0FEA3E0A2
:104BBE00F53B8E3A8D398C381269027B017A047975
:104BCE0000752B30752C10E4FD1292CC1295AE8B25
:104BDE00388A39893A782E7C007D007B017A0479F7
:104BEE00007E007F061215D57534087535FF7536B3
:104BFE007E75377912690280209006A97404F0AB95
:104C0E000EAA0FA91090000B1216149006AAF0907F
:0C4C1E0000041216149006ABF07F012277
:105AFE009006A9E0147003025BDB146003025C0CD9
:105B0E007B017A047900E4F52B752C10FD1292CCF2
:105B1E00782E7C007D007B017A0479007E007F0662
:105B2E001215D57534087535FF75367E75377E12AC
:105B3E0069027B017A047900752B10752C107D1883
:105B4E001292CC78247C007D007B017A0479007E51
:105B5E00007F061215D5752A08752BFF752C337527
:105B6E002DB41285017B017A047900752B20752CDA
:105B7E0010E4FD1292CC78247C007D007B017A0427
:105B8E0079007E007F061215D5752A08752BFF75D4
:105B9E002C33752DA81285017B017A047900752BA3
:105BAE0030752C10E4FD1292CC782E7C007D007B9B
:105BBE00017A0479007E007F061215D575340875BA
:105BCE0035FF75367E75378F12690280319006AAC1
:105BDE00E024F9600F240270259006A97403F0A347
:105BEE00740580169006ABE064056006900643E0EF
:105BFE00600C9006A97403F0A314F0E4A3F07F01E7
:015C0E002273
:1044FC009006A9E014700302463D14601424FD607C
:10450C000302466E9006511219003F8000000246CD
:10451C006E9006AAE078247C007D007B017A0679F7
:10452C00AD7E007F0670030245E11284EC9006AE6E
:10453C00E02FF09006ADE03400F07B017A047900B6
:10454C009006B1E0C313A3E013FF9006A7E0907EA2
:10455C00AF93FEEF8EF0A4FF9006ADA3E02FFDA36A
:10456C00A3E0F52BA3A3E0F52C1292CC782E7C00C3
:10457C007D007B017A0679AD7E007F061215D5751C
:10458C0034087535FF75367E7537A0900651E0FC02
:10459C00A3E0FDA3E0FEA3E0F53B8E3A8D398C3809
:1045AC001269029006AEE02FF09006ADE03400F0F8
:1045BC00782E7C007D007B017A0479007E007F06DA
:1045CC001215D57534117535FF75367E7537A612F3
:1045DC00690202466E1215D5752A081284F29006ED
:1045EC00AEE02FF09006ADE03400F0782E7C007D2C
:1045FC00007B017A0679AD7E007F061215D57534E5
:10460C00187535FF75367E7537A0900651E0FCA302
:10461C00E0FDA3E0FEA3E0F53B8E3A8D398C381219
:10462C0069029006AEE02FF09006ADE03400F08009
:10463C00319006AAE0FC14601314601024FD702263
:10464C009006A7E004F0E05403F080167B017A0694
:10465C0079518C289006A7E0FD126D739006B37407
:04466C0001F07F01D9
:014670002227
:1073A5009006A9E01470030274321460030274534A
:1073B5009006AAE078247C007D007B017A0679ADF1
:1073C5007E007F0660081215D5752A048006121501
:1073D500D5752A081284F29006AEE02FF09006AD1E
:1073E500E03400F078247C007D007B017A0679ADDD
:1073F5007E007F061215D5752A1890064FE025E008
:1074050025E024B8F582E4347EF583E493FB74012A
:1074150093FA7402938B2B8A2CF52D128501900615
:10742500AEE02FF09006ADE03400F080219006AA82
:10743500E024FE600304701690064FE06004E4F05B
:10744500800690064F7401F09006B37401F07F0139
:017455002214
:107704009006A9E01460711460030277AA9006AA97
:10771400E078247C007D007B017A0679AD7E007FD1
:107724000660081215D5752A0480061215D5752A27
:10773400081284F29006AEE02FF09006ADE034001B
:10774400F0782E7C007D007B017A0679AD7E007F87
:10775400061215D57534087535FF75367E7537A84C
:10776400900655E0F5381269029006AEE02FF090CD
:1077740006ADE03400F0802E9006AAE014600D14EB
:107784007024900655E0601E14F0801A907EBFE4C9
:107794009314FF900655E0C39F5005E004F0800663
:0877A4009006557407F07F0107
:0177AC0022BA
:105044009006A9E014700302515A14600302518BB4
:105054009006AAE078247C007D007B017A0679AD75
:105064007E007F0670030251091284EC9006AEE0C4
:105074002FF09006ADE03400F07B017A04790090C3
:1050840006B1E0C313A3E013FF9006B4E0FEEF8E75
:10509400F0A4FF9006ADA3E02FFDA3A3E0F52BA39E
:1050A400A3E0F52C1292CC782E7C007D007B017A53
:1050B4000679AD7E007F061215D57534087535FF67
:1050C40075367E753745900645E0F538A3E0F53929
:1050D4001269029006AEE02FF09006ADE03400F0C5
:1050E400782E7C007D007B017A0479007E007F06A7
:1050F4001215D57534117535FF75367E7537A612C0
:10510400690202518B1215D5752A081284F2900691
:10511400AEE02FF09006ADE03400F0782E7C007DF8
:10512400007B017A0679AD7E007F061215D57534B1
:10513400187535FF75367E753745900645E0F538A8
:10514400A3E0F5391269029006AEE02FF09006ADA7
:10515400E03400F080319006AAE0FC14601314607F
:105164001024FD70229006B4E004F0E05403F080B3
:10517400167B017A0679458C289006B4E0FD1272FC
:0A518400F29006B37401F07F0122DF
:1077AD009006A9E014607914600302784E9006AA41
:1077BD00E078247C007D007B017A0679AD7E007F28
:1077CD000660081215D5752A0480061215D5752A7E
:1077DD00081284F29006AEE02FF09006ADE0340072
:1077ED00F0782E7C007D007B017A0679AD7E007FDE
:1077FD00061215D57534187535FF75367E7537AC8F
:10780D00900643E060047F5980027F4E8F381269E5
:10781D00029006AEE02FF09006ADE03400F080212E
:10782D009006AAE024FE6003047016900643E06003
:10783D0004E4F080069006437401F09006B37401E1
:04784D00F07F0122A5
:108737009006A9E01460391470419006AAE07824E5
:108747007C007D007B017A0679AD7E007F0660089C
