:030000000247FDB7
:1047FD0078EFE4F6D8FD9000007FFF7E04E4F0A38F
:0A480D00DFFCDEFA7581B1024852AB
:094DB100016A00016900016800BB
:0E5C3D00125A7A7F007EC27D017C000258461A
:045D560075C760228B
:105A5F007FF1E4FEEEC39D5011A807E612065D74B8
:0A5A6F000129F9E43AFA0F0E80EA6B
:015A7900220A
:075CEC00758F40438702227F
:105A7A00E4F593F594F591F592F595F596F5B175EA
:0B5A8A00B20475BB70F5B375B4802248
:10581C00EF146012146014146016146018240470D1
:10582C00188D938B94228D918B92228D958B962231
:0A583C008DB18BB2228DB38BB42224
:104F0800EF14601914602214602B146034240470A8
:104F18003BEB6004ED428022EDF4528022EB60040A
:104F2800ED429022EDF4529022EB6004ED42A02273
:104F3800EDF452A022EB6004ED42B022EDF452B041
:0D4F480022EB6004ED42C022EDF452C022C5
:1058E400EF1460101460101460101460102404701D
:1058F4000FAF8022AF9022AFA022AFB022AFC02260
:035904007F0022FF
:10584600438780759850438E04AB07AA06A905A81E
:10585600047F607EE37D167C001207E31208758FD5
:0A5866009C438E01438E10D2AC2249
:0A5CC600E56A70FC8F99756A0122EF
:03002300024E6822
:104E6800C0E0C0F0C083C082C0D075D000C000C010
:104E780001C002C003C004C005C006C00730980DB9
:104E8800C298756901859968AF68123083309905B1
:104E9800C299756A00D007D006D005D004D003D0D7
:104EA80002D001D000D0D0D082D083D0F0D0E03270
:0B5CA500E58F6006E4F58F7568302283
:065D3200A2A2E433FF22EF
:065D3800A2A3E433FF22E8
:0C5C8100C2AF53C71843C70143C78022BD
:095CDA0053C77FE4F5C6D2AF22E6
:0A5CD000125C8175C65A75C6A52244
:10598E00EE54FE90014AF0A3E4F090014AE0F5C314
:0F599E00E4F5C453C5F843C503125CD0025CDACC
:105B3100AD07AC068CC3EDF5C453C5F843C50112DE
:085B41005CD0125CDAAFC22255
:105B7900AB07AA068AC3EBF5C453C5F843C5028D22
:075B8900C2125CD0025CDADD
:034DBA00011E00D7
:045D5A0075C13E22AF
:035D5E00051E22FD
:0E5C4B00E51ED394144006E4F51E43C110225A
:104F55000D0A002020202020303020303120303232
:104F65002030332030342030352030362030372083
:104F75003038203039203041203042203043203035
:104F850044203045203046000D0A30782562302E09
:0C4F950032583A002562302E32582000BD
:064EB8008B268A278928E1
:104EBE00E4F538F539F53A753B00753C298B3D8A9A
:104ECE003E893F853A40853B41853C42FB7A0079DD
:104EDE00711257127B007A00797112000E8F38E42E
:104EEE00F539E539C39538500E74712539F8E6FF5A
:094EFE00125CC6053980EBAF38E7
:014F07002287
:084C8F008B228A2389248D2564
:104C97007BFF7A4F7955124EB87BFF7A4F795812BE
:104CA7004EB8E478B1F678B1E6FFC395255032EFF8
:104CB700540F700C7BFF7A4F798DE6F529124EB8A9
:104CC700AB22AA23A92478B1E6F5827583001206E0
:104CD7000EF5297BFF7A4F7999124EB878B1068085
:0A4CE700C57BFF7A4F7955024EB8E5
:100B5400696E6B65720D0A0057656C636F6D204991
:100B64006E6B65722053797374656D20446562758C
:100B740067204D6F6465210D0A0025733E00496EA0
:100B84006B65725379730025730025730D0A00CECB
:100B9400DED0A7C3FCC1EE00556E6B6E6F776E207E
:100BA400436D64002562303032753A25623030324C
:100BB400753A2562303032753E00457869742049B3
:100BC4006E6B65722053797374656D210D0A000D87
:100BD4000A2562303032753A2562303032753A2552
:100BE40062303032753E0068656C700D0A002E4626
:100BF4006F726D61743B0D0A002E666F726D6174C5
:100C04000D0A0046746F4820203C666C6F61743E88
:100C140020466C6F617420746F204865783B0D0A20
:100C24000048746F4620483C33326269743E204861
:100C3400657820746F20466C6F61743B0D0A004424
:100C440031364820203C7531363E202020446563EF
:100C54002020753136204865783B0D0A004831362E
:100C64004420483C7531363E2020204865782020B9
:100C7400753136204465633B0D0A00443332482005
:100C8400203C7533323E2020204465632020753398
:100C940032204865783B0D0A004833324420483CF2
:100CA4007533323E20202048657820207533322069
:100CB4004465633B0D0A005332482020203C737482
:100CC400723E2020205374722020746F20204865C7
:100CD400783B0D0A0066746F68002566203D3E204F
:100CE4002562303032582025623030325820256257
:100CF40030303258202562303032580D0A00687482
:100D04006F66003058253030303030303030386C39
:100D140058203D3E2025660D0A00643136680025C2
:100D240064203D3E203058253030303034580D0A90
:100D34000068313664003058253030303034582063
:100D44003D3E2025750D0A006433326800256C751C
:100D5400203D3E203058253030303030303030386F
:100D64006C580D0A00683332640030582530303036
:100D74003030303030386C58203D3E20256C750DB5
:100D84000A00733268002E4C6963656E73653B0D0F
:100D94000A002E6C6963656E73650D0A004C696305
:100DA4004D73673B0D0A004C6963656E7365203CA7
:100DB40075383E3B0D0A006C69636D73670D0A005C
:100DC40053746349443A30582562303032582562AE
:100DD4003030325825623030325825623030325843
:100DE4002562303032582562303032582562303036
:100DF40032580D0A002D3E4C6963656E73652043BD
:100E04006F64653A30582562303032580D0A00C894
:100E1400CFD6A4D7B4CCAC3A00D2D1C8CFD6A40D87
:100E24000A00CEB4C8CFD6A40D0A00D3D0D0A7D41C
:100E3400CBD0D03A2564530D0A006C6963656E7398
:100E440065004C6963656E736520537563636573F0
:100E540073210D0A004C6963656E736520466169F0
:100E64006C757265210D0A004D61696C3A646F6E90
:100E7400676D616F77616E3939403136332E636F38
:100E84006D0D0A002E4D63754273703B0D0A002EE2
:100E94006D63756273700D0A00D7A2D2E2B2D9D71E
:100EA400F75033B4AEBFDABDC5BBE1B5BCD6C2CDD5
:100EB400A8D1B6CAA7D0A7210D0A00506F776572D2
:100EC400446F776E3B0D0A0053657442617264721D
:100ED400617465203C7533323E3B0D0A00436667FE
:100EE400506F7274203C706F72743E203C70786D49
:100EF400313E203C70786D303E3B0D0A00536574E2
:100F0400506F7274203C706F72743E203C6269743E
:100F1400733E203C626F6F6C3E3B0D0A0047657464
:100F2400506F7274203C706F72743E3B0D0A0070F7
:100F34006F776572646F776E0D0A004D637520508C
:100F44006F77657220446F776E204D6F6465210062
:100F540073657462617264726174652000556172B4
:100F64007430204272743A256C750D0A006366670A
:100F7400706F727400736574706F72740067657457
:100F8400706F72740050256264203D3D20256230EC
:100F94003032580D0A002E537973506172616D3BE3
:100FA4000D0A002E737973706172616D0D0A00531E
:100FB40079734D73673B0D0A00457869743B0D0ADC
:100FC4000052657365743B0D0A004961703B0D0A5C
:100FD4000056657273696F6E3B0D0A005361766546
:100FE400446174613B0D0A0053797374656D496EF5
:100FF40069743B0D0A0053657454696D65202020A3
:10100400203C483E203C4D3E203C533E3B0D0A00D4
:1010140042656174734669782020203C666C6F6178
:10102400743E3B0D0A004C6F676F4E616D65202066
:10103400203C73747231363E3B0D0A00436F6D449D
:10104400626720202020203C456E313E3C7361764F
:1010540065313E3B0D0A0050726F647563744944F8
:1010640020203C496431363E3B0D0A0053657452DE
:10107400756E54696D65203C7533323E3B0D0A0034
:101084005365744C616E67202020203C75383E20E7
:10109400303A456E20313A43683B0D0A005072667F
:1010A400436C6173732020203C436C6173733E0D69
:1010B4000A007379736D73670D0A002B2D2D2D2D86
:1010C4002D2D2D2D2D2D2D2D2D2D2D2B0D0A007C6F
:1010D40053797374656D20204D6573736167657C06
:1010E4000D0A00436F6D6462672020202020203A9F
:1010F4002562640D0A0045726173654E756D436E19
:1011040074203A256C750D0A0050726F647563740F
:1011140049442020203A253030303034750D0A00FF
:101124004265617473466978202020203A25660D53
:101134000A004C616E6775616765202020203A259E
:10114400730D0A00D6D0CEC400456E676C6973680F
:101154000052756E54696D6520202020203A256C5C
:10116400750D0A00507266436C6173732020202051
:101174003A2562640D0A002A2A2A2A2A2A2A2A2AB5
:101184002A2A2A2A2A2A2A2A0D0A007265736574D1
:101194000D0A00536F66747761726520526573653A
:1011A40074210D0A0073617665646174610D0A002F
:1011B40044617461205361766520456570726F6D7A
:1011C40020466C617368210D0A0073797374656D30
:1011D400696E69740D0A0053797374656D205061EA
:1011E40072616D20496E697420546F204465666194
:1011F400756C74210D0A00657869740D0A006961C3
:10120400700D0A00436F756E7420446F776E3A3325
:1012140030530D0A00436F756E7420446F776E3A35
:101224002530303264530D0A00636F6D64626700C9
:10123400436F6D446267203C3D202562640D0A00C3
:1012440076657273696F6E0D0A0073657474696DE7
:101254006500CAB1BCE43A2562303032753A256281
:10126400303032753A2562303032750D0A007072B2
:101274006F6475637469640050726F64756374207D
:101284003C3D2025750D0A00496E70757420494453
:101294002052616E67653A303030307E39393939E1
:1012A4000D0A00626561747366697800537973424C
:1012B40065617473466978203C3D2025660D0A00FB
:1012C4006C6F676F6E616D650073657472756E74B3
:1012D400696D65007365746C616E67004C616E675F
:1012E40075616765203C3D202562640D0A007072BB
:1012F40066636C61737300507266436C6173732030
:101304003C3D202562640D0A002E4C616D703B0D3E
:101314000A002E6C616D700D0A004C616D70203CEA
:101324006E756D383E203C6F6E383E203C6F6666AD
:10133400383E3B0D0A006C616D70002E426565708D
:101344003B0D0A002E626565700D0A0042656570EA
:10135400203C6E756D383E203C6F6E383E203C6FED
:101364006666383E3B0D0A0062656570002E4D626C
:10137400733B0D0A002E6D62730D0A002D3E4D6203
:10138400734D73672020202020202020202020203F
:101394002020202020204D6F64627573D0C5CFA219
:1013A4000D0A002D3E4D6273494420202020202048
:1013B400203C49443E28317E3235352920C9E8B1E4
:1013C400B849440D0A002D3E4D62734372632020D8
:1013D400202020203C626F6F6C3E202020202020A3
:1013E400435243B5F7CAD4CAB9C4DC0D0A002D3E32
:1013F4004D62734672616D65202020203C626F6FE0
:101404006C3E202020202020B4F2D3A1BDD3CAD525
:10141400CAFDBEDD0D0A006D62736D73670D0A00AF
:101424006D62736964004D62734944203C3D20251C
:1014340062750D0A006D62736372630043726344E4
:1014440065627567203C3D202562640D0A006D626B
:10145400736672616D65005072664D627352786492
:10146400203C3D202562640D0A002E4B65793B0D1E
:101474000A002E6B65790D0A004B6579203C75389E
:101484003E20522F573B0D0A006B65790D0A004B25
:10149400657956616C3D2562750D0A006B657900AE
:1014A4002E50726A3B0D0A002E70726A0D0A0050AB
:1014B400726A4D73673B0D0A00496E5075743B0D9B
:1014C4000A0070726A6D73670D0A007C50726F6A4D
:1014D400656374204D6573736167657C0D0A005004
:1014E400726A53746174653A2562643B0D0A00693B
:1014F4006E7075740D0A00496E5075743A256264F5
:07150400202562640D0A00BE
:10596E001205F5FF6019C39441400BEFD3945A50C2
:10597E0005742012063B740129F9E43AFA80E122FB
:0759AD007B017A00798FFDF8
:1059B400E4FF1205F5B5050122740129F9E43AFA68
:0659C4000FBF20EE7FFF83
:0159CA0022BA
:0D5AFF009000AFE0248EF9E43400FA7B0142
:0C5B0C001205F5B40D037F01227F00227A
:1058BE00E4FF1205F5FEB50508E52612065D7F012B
:1058CE0022EEB40D037F0022740129F9E43AFA0F97
:0558DE00BF20DF7F0088
:0158E30022A2
:065326008B228A2389247A
:10532C00E4FF1205F5B4310CAB25AA26A9277401AC
:10533C0012065D0FAB22AA23A9241205F5B4300C7A
:10534C00AB25AA26A927E412065D7F019000AFE0E9
:03535C002402F038
:01535F00222B
:103D00007F01E4FEFD1205F5FC64486008EC646880
:103D10006003023D9C740129F9E43AFA804CEEC339
:103D20009402504E1205F5FCC39430401AECD39423
:103D3000395014EDC454F0FDEC540F2DFD740129DD
:103D4000F9E43AFA0E80231205F5FCC3946140228F
:103D5000ECD39466501CEDC454F0FDEC540F2D24AC
:103D600009FD740129F9E43AFA0E9000AFE004F07D
:103D700080ACEE7001FFEE640270691205F5FCC3C1
:103D800094614008ECD394665002E4FFECC3943095
:103D90004052ECD39439504CE4FF8048EEC3940376
:103DA000502A1205F5FCC394304021ECD3943950CD
:103DB0001BED75F00AA4FDEC540F2DFD740129F9DB
:103DC000E43AFA0E9000AFE004F080D0EE7001FF0C
:103DD000BE03111205F5FEC394304008EED39439AA
:103DE0005002E4FFAB26AA27A928ED12065D900039
:043DF000AFE004F04C
:013DF40022AC
:064AB0008B228A238924F9
:104AB6007F01E4FEF5281205F5642260021F2274C8
:104AC600012524F524E43523F5238045EEC3940D12
:104AD6005047AB22AA23A9241205F5FDB42217904C
:104AE60000AFE004F0AB25AA26A9278E82758300C5
:104AF600E412066F8023AB25AA26A9278E8275832A
:104B060000ED12066F74012524F524E43523F52300
:104B16000E9000AFE004F080B3EE7001FF9000AF9E
:034B2600E004F0B8
:014B29002269
:1031EB00752801E4F529F52AF52B1205F5FF64483E
:1031FB006008EF646860030232CE740129F9E43A87
:10320B00FA023296E529C39404400302329F120559
:10321B00F5FFC394304031EFD39439502BE52BC4D9
:10322B00F8540FC868F52BE52AC454F048F52A1258
:10323B0005F5540F252BF52BE4352AF52A740129B6
:10324B00F9E43AFA052980431205F5FFC39461406E
:10325B0043EFD39466503DE52BC4F8540FC868F583
:10326B002BE52AC454F048F52A1205F5540F252BEB
:10327B00F52BE4352AF52A7409252BF52BE4352A91
:10328B00F52A740129F9E43AFA05299000AFE00414
:10329B00F002320FE5297002F528E529640460037A
:1032AB0002332F1205F5FFC394614009EFD39466E7
:1032BB005003E4F528EFC394304069EFD3943950B1
:1032CB0063805EE529C39406503D1205F5FFC39458
:1032DB00304034EFD39439502EAE2AAF2B7C007D87
:1032EB000A1206918E2A8F2B1205F5540F252BF5FA
:1032FB002BE4352AF52A740129F9E43AFA052990C9
:10330B0000AFE004F080BCE5297002F528E529B494
:10331B0006121205F5FFC394304009EFD3943950D0
:10332B0003E4F528AB25AA26A927E52A852BF0125D
:0A333B0007399000AFE004F0AF285E
:013345002265
:062A1B008B228A238924AE
:102A2100752801E4F529F52DF52CF52BF52A12056C
:102A3100F5FF64486008EF64686003022B57740176
:102A41002524F524E43523F523022B12E529C3942B
:102A5100084003022B1BAB22AA23A9241205F5FF70
:102A6100C394304048EFD394395042AF2DAE2CADD2
:102A71002BAC2A78041208A78F2D8E2C8D2B8C2A33
:102A81001205F5540FFFE4FCFDFEE52D2FF52DEEAB
:102A9100352CF52CED352BF52BEC352AF52A740167
:102AA1002524F524E43523F523052980641205F551
:102AB100FFC394614064EFD39466505EAF2DAE2C9A
:102AC100AD2BAC2A78041208A78F2D8E2C8D2B8C60
:102AD1002A1205F5540FFFE4FCFDFEE52D2FF52D1F
:102AE100EE352CF52CED352BF52BEC352AF52AE5B9
:102AF1002D2409F52DE4352CF52CE4352BF52BE4AB
:102B0100352AF52A74012524F524E43523F5230516
:102B1100299000AFE004F0022A4DE5297002F52862
:102B2100E52964086003022BE8AB22AA23A9241239
:102B310005F5FFC394614009EFD394665003E4F5B2
:102B410028EFC394305003022BE8EFD394394003AC
:102B5100022BE8022BE5E529C3940A5067AB22AAB0
:102B610023A9241205F5FFC394304058EFD39439BB
:102B71005052AF2DAE2CAD2BAC2AE47B0AFAF9F8FA
:102B81001207588F2D8E2C8D2B8C2AAB22AA23A9AC
:102B9100241205F5540FFFE4FCFDFEE52D2FF52D64
:102BA100EE352CF52CED352BF52BEC352AF52A7469
:102BB100012524F524E43523F52305299000AFE010
:102BC10004F08092E5297002F528E529B40618ABD6
:102BD10022AA23A9241205F5FFC394304009EFD39B
:102BE10094395003E4F528AF2DAE2CAD2BAC2AABB4
:102BF10025AA26A9271208DA9000AFE004F0AF2831
:012C010022B0
:0622E9008B228A238924E8
:1022EF00752801E4F529F52AF52BF52CF530F52F96
:1022FF00F52EF52DF534F533F532F531F538F53793
:10230F00F536F5351205F5B42D1474012524F52491
:10231F00E43523F5239000AFE004F0752C01E52997
:10232F00C39408400302253FAB22AA23A924120518
:10233F00F5FFC394305003022517EFD394394003B0
:10234F00022517E52A70030224C61205F5540FFC67
:10235F00E41202DF8F388E378D368C35E52AB401C3
:10236F002DAB34AA33A932A831C000C001C002C0BE
:10237F0003E4FBFA79207841120227D003D002D070
:10238F0001D00012002D8F348E338D328C31E52A1F
:10239F00B40235AB34AA33A932A831C000C001C092
:1023AF0002C003E4FBFA79C87842AF38AE37AD36D6
:1023BF00AC35120227D003D002D001D00012002D6D
:1023CF008F348E338D328C31E52AB40335AB34AA7A
:1023DF0033A932A831C000C001C002C003E4FBFA28
:1023EF00797A7844AF38AE37AD36AC35120227D094
:1023FF0003D002D001D00012002D8F348E338D32D6
:10240F008C31E52AB40436AB34AA33A932A831C0D3
:10241F0000C001C002C0037B007A40791C7846AF30
:10242F0038AE37AD36AC35120227D003D002D0010B
:10243F00D00012002D8F348E338D328C31E52AB4BB
:10244F000536AB34AA33A932A831C000C001C0028F
:10245F00C0037B007A5079C37847AF38AE37AD36BB
:10246F00AC35120227D003D002D001D00012002DBC
:10247F008F348E338D328C31E52AB40636AB34AAC5
:10248F0033A932A831C000C001C002C0037B007A5B
:10249F002479747849AF38AE37AD36AC3512022790
:1024AF00D003D002D001D00012002D8F348E338D87
:1024BF00328C31052A804DAF30AE2FAD2EAC2DE4CE
:1024CF00FBFA7920784112011E8F308E2F8D2E8CC2
:1024DF002DAB30AA2FA92EA82DC000C001C002C05D
:1024EF0003AB22AA23A9241205F5540FFCE4120210
:1024FF00DFD003D002D001D00012002D8F308E2FED
:10250F008D2E8C2D74018014AB22AA23A9241205C1
:10251F00F5B42E1CE52A7018752A01042524F5241C
:10252F00E43523F52305299000AFE004F002232DB5
:10253F00E5297002F528E529B40818AB22AA23A9CA
:10254F00241205F5FFC394304009EFD3943950039B
:10255F00E4F528AF34AE33AD32AC31AB30AA2FA98E
:10256F002EA82D12002D8F388E378D368C35E52CF9
:10257F0060051202C48008AF38AE37AD36AC35AB4C
:10258F0025AA26A9271208DA9000AFE004F0AF2899
:01259F002219
:10507C00788F7C007D017BFF7A0B7954120AEBEF61
:10508C00702E90012D04F07BFF7A0B795C124EB8D8
:10509C0090008F7468F0A37465F0A3746CF0A37423
:1050AC0070F0A3740DF0A3740AF0E4A3F07F012256
:0350BC007F002250
:1052B000E490008EF090012DE0602F90008F7468D4
:1052C000F0A37465F0A3746CF0A37470F0A3740D74
:1052D000F0A3740AF0E4A3F07529FF752A0B752B6F
:0B52E000827BFF7A0B797E124EB82211
:102C0200E5697003022D9FE4F56990012DE07003E0
:102C1200022D1FE568640D6009E568640A6003021D
:102C22002CCF90008EE0604B7F0D125CC67F0A12A3
:102C32005CC690008EE0FF04F0748F2FF582E434BE
:102C420000F583740DF090008EE0FF04F0748F2F76
:102C5200F582E43400F583740AF090008EE0FF04FC
:102C6200F0748F2FF582E43400F583E4F090008E47
:102C7200F0801F7B017A00798F752620E4FD1258BF
:102C8200BE8B29752A00752B8F7BFF7A0B798B12ED
:102C92004EB812492AEF7021900138E07BFF60069E
:102CA2007A0B799380047A0B799C8B298A2A892B57
:102CB2007BFF7A0B798E124EB890012DE07BFF607C
:102CC200067A0B79A8803C7A0B79BE8048E568B415
:102CD200080A90008EE0601A14F0801690008EE0D0
:102CE200248FF582E43400F583E568F090008EE0ED
:102CF20004F090008EE0C3941D401DE4F07BFF7A47
:102D02000B79D390013DE0F52990013CE0F52A9042
:102D1200013BE0F52B024EB8AF68025CC6E5686481
:102D22000D6006E568640A704490008EE0606EFFF4
:102D320004F0748F2FF582E43400F583740DF09063
:102D4200008EE0FF04F0748F2FF582E43400F583E7
:102D5200740AF090008EE0FF04F0748F2FF582E485
:102D62003400F583E4F090008EF002492AE568B45D
:102D7200080A90008EE0601A14F0801690008EE02F
:102D8200248FF582E43400F583E568F090008EE04C
:0E2D920004F090008EE0C3941E4002E4F02294
:101F9000788F7C007D017BFF7A0B79EB120AEBEFE7
:101FA000700C7BFF7A0B79F2124EB87F0022788F8B
:101FB0007C007D017BFF7A0B79FD120AEBEF703F0D
:101FC0007BFF7A0C7907124EB87BFF7A0C792512C9
:101FD0004EB87BFF7A0C7943124EB87BFF7A0C79AE
:101FE00061124EB87BFF7A0C797F124EB87BFF7A74
:101FF0000C799D124EB87BFF7A0C79BB02228B784C
:102000008F7C007D017BFF7A0C79D9120AEBEF708F
:10201000761259ADEF049000AFF0248FF9E434004C
:10202000FAC0038B257526007527D8D0031222E944
:10203000EF7002FF22125AFFEF7002FF229000D8C9
:10204000E0FCA3E0FDA3E0FEA3E0FF125BB77B0191
:102050007A0079C3124FEC7BFF7A0C79DE9000D8BE
:10206000E0FCA3E0FDA3E0FEA3E0F52C8E2B8D2A7F
:102070008C299000C3E0F52DA3E0F52EA3E0F52F09
:10208000A3E0F53002228B788F7C007D017BFF7A04
:102090000D7902120AEBEF70741259ADEF04900043
:1020A000AFF0248FF9E43400FAC0038B25752600C5
:1020B0007527D4D003122A1BEF7002FF22125AFF99
:1020C000EF7002FF229000D4E0FCA3E0FDA3E0FE4D
:1020D000A3E0FF125BC99000D81208F47BFF7A0DD1
:1020E00079079000D4E0FCA3E0FDA3E0FEA3E0F5B7
:1020F0002C8E2B8D2A8C29A3E0FCA3E0FDA3E0FE0F
:10210000A3E0F5308E2F8D2E8C2D02228B788F7CC4
:10211000007D017BFF7A0D791E120AEBEF704412ED
:1021200059ADEF049000AFF0248FF9E43400FAC009
:10213000038B257526007527CED0031231EBEF7087
:1021400002FF22125AFFEF7002FF227BFF7A0D7905
:10215000239000CEE0FEA3E08E29F52A8E2BF52CED
:1021600002228B788F7C007D017BFF7A0D793512FE
:102170000AEBEF70441259ADEF049000AFF0248FDA
:10218000F9E43400FAC0038B257526007527CED0FC
:10219000031231EBEF7002FF22125AFFEF7002FFC1
:1021A000227BFF7A0D793A9000CEE0FEA3E08E29E3
:1021B000F52A8E2BF52C02228B788F7C007D017BFB
:1021C000FF7A0D794C120AEBEF70581259ADEF04FB
:1021D0009000AFF0248FF9E43400FAC0038B25752A
:1021E00026007527D4D003122A1BEF7002FF22129B
:1021F0005AFFEF7002FF227BFF7A0D79519000D4D5
:10220000E0FCA3E0FDA3E0FEA3E0F52C8E2B8D2ADD
:102210008C299000D4A3A3A3E0F5308E2F8D2E8CB3
:102220002D8068788F7C007D017BFF7A0D796912A3
:102230000AEBEF705C1259ADEF049000AFF0248F01
:10224000F9E43400FAC0038B257526007527D4D035
:1022500003122A1BEF7002FF22125AFFEF7002FFD7
:10226000227BFF7A0D796E9000D4E0FCA3E0FDA301
:10227000E0FEA3E0F52C8E2B8D2A8C299000D4A3B0
:10228000A3A3E0F5308E2F8D2E8C2D124EB87F013A
:1022900022788F7C007D017BFF7A0D7986120AEB14
:1022A000EF70431259ADEF049000AFF0248FF9E4C2
:1022B0003400FAC0038B257526007527B0D00312B1
:1022C0004AB0EF7002FF22125AFFEF7002FF227B2A
:1022D000017A0079B012000EAD077B017A0079B067
:0922E000124C8F7F01227F0022C5
:102F1300788F7C007D017BFF7A0B79EB120AEBEF54
:102F2300700C7BFF7A0D798A124EB87F0022788F5E
:102F33007C007D017BFF7A0D7996120AEBEF701509
:102F43007BFF7A0D79A1124EB87BFF7A0D79AB1214
:102F53004EB87F0122788F7C007D017BFF7A0D794B
:102F6300BB120AEBEF6003022FF47BFF7A0D79C4E7
:102F730090011BE0F529A3E0F52AA3E0F52BA3E0DC
:102F8300F52CA3E0F52DA3E0F52EA3E0F52F124ECB
:102F9300B8E49000CBF0F522741B2522F582E434CB
:102FA30001F583E0FF9000CBE02FF00522E522B48A
:102FB30007E67BFF7A0D79F99000CBE0F529124EF5
:102FC300B87BFF7A0E7913124EB890012AE07BFF8B
:102FD30060067A0E791D80137A0E7926124EB87B1D
:102FE300FF7A0E792F752900752A0A124EB87F01D0
:102FF30022788F7C007D017BFF7A0E793E120AEBEB
:10300300EF707A1259ADEF049000AFF0248FF9E41A
:103013003400FAC0038B267527007528CBD0031222
:103023003D00EF7002FF22125AFFEF7002FF22E40D
:10303300F5229000CBE02522FF74222522F582E4BD
:103043003401F583EFF00522E522B408E51255F0CB
:1030530090012AEFF07BFF60117A0E7946124EB889
:10306300E490012DF01240B080107A0E7959124E7F
:0F307300B87BFF7A0E796C124EB87F01227F0076
:01308200222B
:1025A000788F7C007D017BFF7A0B79EB120AEBEFD1
:1025B000700C7BFF7A0E7988124EB87F0022788FDC
:1025C0007C007D017BFF7A0E7993120AEBEF703667
:1025D0007BFF7A0E799D124EB87BFF7A0E79BF127F
:1025E0004EB87BFF7A0E79CC124EB87BFF7A0E790B
:1025F000E1124EB87BFF7A0F7901124EB87BFF7A59
:102600000F7921022812788F7C007D017BFF7A0FE1
:102610007933120AEBEF700C7BFF7A0F793F124E81
:10262000B8125CEC788F7C007D017BFF7A0F7954C7
:10263000120AEBEF705E1259ADEF049000AFF02478
:102640008FF9E43400FAC0038B257526007527D472
:10265000D003122A1BEF7002FF22125AFFEF700202
:10266000FF227BFF7A0F79619000D4E0FCA3E0FDAC
:10267000A3E0FEA3E0F52C8E2B8D2A8C29124EB8F8
:102680009000D4E0FCA3E0FDA3E0FEA3E0FF12581D
:10269000467F0122788F7C007D017BFF7A0F797164
:1026A000120AEBEF60030227281259ADEF049000E5
:1026B000AFF0248FF9E43400FAC0038B26752700AD
:1026C0007528CBD003123D00EF7002FF229000AFBF
:1026D000E0248FF9E43400FA7B01C0038B267527D0
:1026E000007528CCD003123D00EF7002FF2290004D
:1026F000AFE0248FF9E43400FA7B01C0038B267528
:1027000027007528CDD003123D00EF7002FF221282
:102710005AFFEF7002FF229000CBE0FFA3E0FDA381
:10272000E0FB12581C7F0122788F7C007D017BFF2B
:102730007A0F7979120AEBEF60030227BE1259ADC6
:10274000EF049000AFF0248FF9E43400FAC0038B5B
:10275000267527007528CBD003123D00EF7002FFCD
:10276000229000AFE0248FF9E43400FA7B01C0032B
:102770008B267527007528CCD003123D00EF700220
:10278000FF229000AFE0248FF9E43400FA7B01C00F
:10279000038B267527007528C0D003123D00EF700B
:1027A00002FF22125AFFEF7002FF229000CBE0FFDF
:1027B000A3E0FD9000C0E0FB124F087F0122788F5C
:1027C0007C007D017BFF7A0F7981120AEBEF704864
:1027D0001259ADEF049000AFF0248FF9E43400FA01
:1027E000C0038B267527007528CBD003123D00EF60
:1027F0007002FF22125AFFEF7002FF229000CBE01E
:10280000FF1258E48F2A7BFF7A0F79899000CBE082
:0B281000F529124EB87F01227F002244
:10150B00788F7C007D017BFF7A0B79EB120AEBEF76
:10151B00700C7BFF7A0F799A124EB87F0022788F6E
:10152B007C007D017BFF7A0F79A7120AEBEF60033A
:10153B000215C57BFF7A0F79B3124EB87BFF7A0F7A
:10154B0079BD124EB87BFF7A0F79C5124EB87BFF6F
:10155B007A0F79CE124EB87BFF7A0F79D5124EB82F
:10156B007BFF7A0F79E0124EB87BFF7A0F79EC1282
:10157B004EB87BFF7A0F79FA124EB87BFF7A10794F
:10158B0014124EB87BFF7A10792A124EB87BFF7A71
:10159B00107940124EB87BFF7A10795B124EB87BF4
:1015AB00FF7A107970124EB87BFF7A107984124E45
:1015BB00B87BFF7A1079A1021B18788F7C007D0114
:1015CB007BFF7A1079B6120AEBEF60030216AA7B47
:1015DB00FF7A1079BF124EB87BFF7A1079D3124E77
:1015EB00B87BFF7A1079BF124EB87BFF7A1079E780
:1015FB0090012DE0F529124EB87BFF7A1079FA9005
:10160B000130E0FCA3E0FDA3E0FEA3E0F52C8E2B64
:10161B008D2A8C29124EB87BFF7A11790D90012EF1
:10162B00E0F529A3E0F52A124EB87BFF7A11792455
:10163B00900134E0FCA3E0FDA3E0FEA3E0F52C8ECB
:10164B002B8D2A8C29124EB8900138E07BFF600657
:10165B007A11794880047A11794D8B298A2A892B42
:10166B007BFF7A117936124EB87BFF7A1179559040
:10167B00013EE0FCA3E0FDA3E0FEA3E0F52C8E2BE6
:10168B008D2A8C29124EB87BFF7A1179689001391B
:10169B00E0F529124EB87BFF7A11797B021B187883
:1016AB008F7C007D017BFF7A11798F120AEBEF7033
:1016BB000B7BFF7A117997124EB880FE788F7C00E6
:1016CB007D017BFF7A1179A9120AEBEF700C1240A6
:1016DB00B07BFF7A1179B4021B18788F7C007D01E7
:1016EB007BFF7A1179CE120AEBEF700F1256831231
:1016FB0040B07BFF7A1179DB021B18788F7C007D61
:10170B00017BFF7A1179FB120AEBEF700B90012D25
:10171B00F0900139F07F0122788F7C007D017BFFF7
:10172B007A127902120AEBEF70617BFF7A12790859
:10173B00124EB89000CE7402F0A37458F09000CE05
:10174B0074FFF5F01206F845F0603DE5697039124B
:10175B005C4B7F32125D2B9000CEE0FEA3E0FF7C52
:10176B00007D141206A3ED4C70D39000CEE0FEA3C7
:10177B00E0FF7C007D141206A38E298F2A7BFF7A53
:10178B00127919124EB880B5125D56788F7C007D98
:10179B00017BFF7A12792D120AEBEF70721259ADA1
:1017AB00EF049000AFF0248FF9E43400FAC0038B00
:1017BB00257526007527C0D003125326EF7002FF44
:1017CB00229000AFE0248FF9E43400FA7B01C003D0
:1017DB008B257526007527C1D003125326EF700297
:1017EB00FF22125AFFEF7002FF229000C0E090011F
:1017FB002DF09000C1E06008E4900139F01240B088
:10180B007BFF7A12793490012DE0F529021B1878B1
:10181B008F7C007D017BFF7A127944120AEBEF700B
:10182B000612432E7F0122788F7C007D017BFF7A8D
:10183B0012794E120AEBEF60030218F01259ADEF5A
:10184B00049000AFF0248FF9E43400FAC0038B2628
:10185B007527007528CBD003123D00EF7002FF22D5
:10186B009000AFE0248FF9E43400FA7B01C0038BC6
:10187B00267527007528CCD003123D00EF7002FFB0
:10188B00229000AFE0248FF9E43400FA7B01C0030F
:10189B008B267527007528CDD003123D00EF700203
:1018AB00FF22125AFFEF7002FF229000CCE0FFC321
:1018BB00943C5031A3E0FEC3943B50299000CBE005
:1018CB0090013DF090013CEFF090013BEEF07BFF7F
:1018DB007A12795690013DE0F52990013CE0F52A0A
:1018EB008E2B021B18788F7C007D017BFF7A12797F
:1018FB0072120AEBEF705D1259ADEF049000AFF06E
:10190B00248FF9E43400FAC0038B25752600752764
:10191B00CED0031231EBEF7002FF22125AFFEF70A1
:10192B0002FF229000AFE0D3940F501C9000CEE04A
:10193B00FEA3E0FF90012EEEF0A3EFF07BFF7A12F7
:10194B00797C8E29F52A80067BFF7A12798C124ED0
:10195B00B87F0122788F7C007D017BFF7A1279A7FB
:10196B00120AEBEF705E1259ADEF049000AFF0244A
:10197B008FF9E43400FAC0038B257526007527D840
:10198B00D0031222E9EF7002FF22125AFFEF70020E
:10199B00FF229000D8E0FCA3E0FDA3E0FEA3E0FF54
:1019AB009001341208F47BFF7A1279B0900134E085
:1019BB00FCA3E0FDA3E0FEA3E0F52C8E2B8D2A8C7F
:1019CB0029021B18788F7C007D017BFF7A1279C46A
:1019DB00120AEBEF703E1259ADEF049000AFF024FA
:1019EB008FF9E43400FAC0038B257526007527B0F8
:1019FB00D003124AB0EF7002FF22125AFFEF7002AF
:101A0B00FF22752901752A00752BB07BFF7A0B79A4
:101A1B008E021B18788F7C007D017BFF7A1279CDAB
:101A2B00120AEBEF70491259ADEF049000AFF0249E
:101A3B008FF9E43400FAC0038B257526007527D483
:101A4B00D003122A1BEF7002FF22125AFFEF700213
:101A5B00FF22125C2E9000D4E0FCA3E0FDA3E0FE7D
:101A6B00A3E0FF90013E1208F4756D017F0122780F
:101A7B008F7C007D017BFF7A1279D8120AEBEF7015
:101A8B003E1259ADEF049000AFF0248FF9E434000F
:101A9B00FAC0038B267527007528CBD003123D00A7
:101AAB00EF7002FF22125AFFEF7002FF229000CB61
:101ABB00E0900138F07BFF7A1279E0F529804E78BF
:101ACB008F7C007D017BFF7A1279F2120AEBEF70AB
:101ADB00421259ADEF049000AFF0248FF9E43400BB
:101AEB00FAC0038B267527007528CBD003123D0057
:101AFB00EF7002FF22125AFFEF7002FF229000CB11
:101B0B00E0900139F07BFF7A1279FBF529124EB880
:061B1B007F01227F002281
:10418800788F7C007D017BFF7A0B79EB120AEBEFCD
:10419800700C7BFF7A13790D124EB87F0022788F4E
:1041A8007C007D017BFF7A137916120AEBEF700C05
:1041B8007BFF7A13791E124EB87F0122788F7C001C
:1041C8007D017BFF7A13793A120AEBEF6003024212
:1041D800581259ADEF049000AFF0248FF9E4340081
:1041E800FAC0038B267527007528CBD003123D0033
:1041F800EF7002FF229000AFE0248FF9E43400FA58
:104208007B01C0038B267527007528CCD003123D8F
:1042180000EF7002FF229000AFE0248FF9E4340031
:10422800FA7B01C0038B267527007528CDD00312B1
:104238003D00EF7002FF22125AFFEF7002FF22903A
:1042480000CBE0FFA3E0FDA3E0FB125CE37F0122CB
:034258007F0022C2
:10425B00788F7C007D017BFF7A0B79EB120AEBEFF9
:10426B00700C7BFF7A13793F124EB87F0022788F48
:10427B007C007D017BFF7A137948120AEBEF700CFF
:10428B007BFF7A137950124EB87F0122788F7C0016
:10429B007D017BFF7A13796C120AEBEF600302430B
:1042AB002B1259ADEF049000AFF0248FF9E43400DA
:1042BB00FAC0038B267527007528CBD003123D005F
:1042CB00EF7002FF229000AFE0248FF9E43400FA84
:1042DB007B01C0038B267527007528CCD003123DBC
:1042EB0000EF7002FF229000AFE0248FF9E434005E
:1042FB00FA7B01C0038B267527007528CDD00312DE
:10430B003D00EF7002FF22125AFFEF7002FF229066
:10431B0000CBE0FFA3E0FDA3E0FB125C597F012281
:03432B007F0022EE
:102DA000788F7C007D017BFF7A0B79EB120AEBEFC9
:102DB000700C7BFF7A137971124EB87F0022788FE6
:102DC0007C007D017BFF7A137979120AEBEF702486
:102DD0007BFF7A137980124EB87BFF7A1379A712A2
:102DE0004EB87BFF7A1379CA124EB87BFF7A1379FB
:102DF000F2022F0A788F7C007D017BFF7A14791B09
:102E0000120AEBEF70091257401259E97F0122783C
:102E10008F7C007D017BFF7A147924120AEBEF701E
:102E2000431259ADEF049000AFF0248FF9E4340061
:102E3000FAC0038B267527007528CBD003123D00FE
:102E4000EF7002FF22125AFFEF7002FF229000CBB8
:102E5000E0FF125D447BFF7A14792A9000CBE0F505
:102E600029022F0A788F7C007D017BFF7A14793943
:102E7000120AEBEF70421259ADEF049000AFF0244C
:102E80008FF9E43400FAC0038B257526007527C03E
:102E9000D003125326EF7002FF22125AFFEF700286
:102EA000FF229000C0E0FF125D4A7BFF7A14794058
:102EB0009000C0E0F5298052788F7C007D017BFF77
:102EC0007A147952120AEBEF70461259ADEF049062
:102ED00000AFF0248FF9E43400FAC0038B25752687
:102EE000007527C0D003125326EF7002FF22125A3A
:102EF000FFEF7002FF229000C0E0FF125D507BFFE9
:102F00007A14795B9000C0E0F529124EB87F012257
:032F10007F00221D
:1046BB00788F7C007D017BFF7A0B79EB120AEBEF95
:1046CB00700C7BFF7A14796E124EB87F0022788FB4
:1046DB007C007D017BFF7A147976120AEBEF700870
:1046EB007BFF7A14797D801B788F7C007D017BFFAB
:1046FB007A14798D120AEBEF700F7BFF7A14799392
:10470B00851D29124EB87F0122788F7C007D017B9D
:10471B00FF7A1479A0120AEBEF70381259ADEF043F
:10472B009000AFF0248FF9E43400FAC0038B2675A8
:10473B0027007528CBD003123D00EF7002FF221229
:10474B005AFFEF7002FF229000CBE0F51D751C01A4
:06475B007F01227F002215
:1044B300788F7C007D017BFF7A0B79EB120AEBEF9F
:1044C300700C7BFF7A1479A4124EB87F0022788F88
:1044D3007C007D017BFF7A1479AC120AEBEF70113B
:1044E3007BFF7A1479B3124EB87BFF7A1479BD80BF
:1044F3006B788F7C007D017BFF7A1479C6120AEBFF
:10450300EF70327BFF7A1079BF124EB87BFF7A14BB
:1045130079CF124EB87BFF7A1079BF124EB87BFF6A
:104523007A1479E390014CE0F529124EB87BFF7AB7
:1045330011797B8027788F7C007D017BFF7A14794A
:10454300F3120AEBEF701BFF125B90C0077F01129F
:104553005B908F2AD0297BFF7A1479FB124EB87FA8
:0545630001227F00228F
:10492A0090012DE0607B7B017A00798FE4F5267D8A
:10493A00201258BE7A00798F12596E121F90BF0149
:10494A00037F0122122F13BF01037F01221225A028
:10495A00BF01037F012212150BBF01037F0122123F
:10496A004188BF01037F012212425BBF01037F011D
:10497A00221246BBBF01037F0122122DA0BF0103F1
:10498A007F01221244B3BF01037F0122788F7C008A
:10499A007D017BFF7A0B79EB120AEBEF70067F0140
:0749AA002202507C7F002275
:080003000102040810204080F6
:104FEC008F338E328D318C30900003EF12066FAF01
:104FFC0033AE32AD31AC307808120894900002EF29
:10500C0012066FAF33AE32AD31AC3078101208945B
:10501C00900001EF12066FAF33AE32AD31AC307889
:08502C0018120894EF02065D62
:10456800E4F53BF53AF539F5381205F5FFE53B4F2B
:10457800F53BE53AF53AE539F539E538F538AF3B35
:10458800AE3AAD39FC78081208A78F3B8E3A8D39C0
:104598008C3890000112060EFFE53B4FF53BE53ADB
:1045A800F53AE539F539E538F538AF3BAE3AAD3986
:1045B800FC78081208A78F3B8E3A8D398C3890000A
:1045C8000212060EFFE53B4FF53BE53AF53AE539B1
:1045D800F539E538F538AF3BAE3AAD39FC78081215
:1045E80008A78F3B8E3A8D398C3890000312060E3F
:1045F800FFE53B4FF53BE53AF53AE539F539E5385E
:09460800F538AF3BAE3AAD39FCC8
:014611002286
:085BB7008F338E328D318C30EA
:095BBF007B007A0079301208BA6B
:015BC80022BA
:085BC9008F328E318D308C2FDC
:095BD1007B007A00792F1208BA5A
:015BDA0022A8
:103A0B0025732C2573004D617920323120323031F2
:103A1B00350032323A32313A333900202041757455
:103A2B006865723A2025730D0A0020205379737450
:103A3B00656D3A2025730D0A0020436F6D70616E22
:103A4B00793A2025730D0A002050726F64756374E8
:103A5B003A2025732C25730D0A0020566572736965
:103A6B006F6E3A2025732C25730D0A002042756961
:103A7B006C6465643A2025730D0A002020466F7331
:103A8B00636C6B3A2025302E34664D487A0D0A0054
:103A9B0001496E6B65722E446F6E6700000000006B
:103AAB000047504D4C5F535953000000000000007D
:103ABB0000BAEAC5A3B5E7D7D300000000000000A9
:103ACB0000D6C7C4DCB9DCBCD2C6C5000000000000
:103ADB0000484E3838383800000000000000000065
:103AEB0000312E303100000000000000000000000B
:103AFB000044000000000000000000000000000077
:013B0B0000B9
:075CF3007BFF7A3A799C2245
:075CFA007BFF7A3A79AC222E
:075D01007BFF7A3A79BC2216
:075D08007BFF7A3A79CC22FF
:075D0F007BFF7A3A79DC22E8
:075D16007BFF7A3A79EC22D1
:075D1D007BFF7A3A79FC22BA
:075D24007B017A01790222E4
:10432E007546FF75473A75480B7549FF754A3A75DC
:10433E004B11754CFF754D3A754E1D7B017A017907
:10434E0002121B7D125CF38B298A2A892B7BFF7A42
:10435E003A7926124EB8125CFA8B298A2A892B7B5F
:10436E00FF7A3A7935124EB8125D018B298A2A8965
:10437E002B7BFF7A3A7944124EB8125D08C003C007
:10438E0002C001125D0F8B2C8A2D892ED001D00216
:10439E00D0038B298A2A892B7BFF7A3A7953124EC6
:1043AE00B8125D16C003C002C001125D1D8B2C8AAF
:1043BE002D892ED001D002D0038B298A2A892B7BFE
:1043CE00FF7A3A7965124EB8125D248B298A2A89B2
:1043DE002B7BFF7A3A7977124EB87BFF7A3A798641
:0E43EE00E4F52CF52B752AC0752941024EB856
:105BDB004C6963656E7365205265736574210D0A9C
:015BEB0000B9
:105A250090012BE4F0A3740AF07B017A01791B7DC8
:0D5A350007125A5F1255F090012AEFF0227F
:1055F000E4FFFE741B2EF582E43401F583E02FFFF7
:105600000EBE07EFE4FEEF2EFD74222EF582E43489
:1056100001F583E06D60037F00220EBE08E87F0184
:015620002267
:10558A0090012AE06009A3E4F0A3740AF0800E9067
:10559A00012CE024FFF090012BE034FFF090012B66
:1055AA00E07002A3E0700B7BFF7A5B79DB124EB8E6
:0355BA0080FE224E
:104DBD0044013E00000000016D00016B00016C1EFE
:0F5C2E007F007E0212598EE4900142F0A3F02213
:104612007B007A0079247F007E0212510074FFFF32
:10462200FEFDFCAB27AA26A925A824C31208837085
:104632000E125C2E90013E1209000000000022E4DE
:10464200F52CF52DE52DAE2C7802C333CE33CED822
:10465200F92400FFEE3402FE7B007A007924125125
:104662000074FFFFFEFDFCAB27AA26A925A824C3E0
:104672001208837018E52DAE2C7802C333CE33CEE8
:10468200D8F9900143F0EE900142F0801D85272B6E
:1046920085262A852529852428052DE52D700205E4
:1046A2002CC39480E52C9400409AAF2BAE2AAD29FE
:0846B200AC2890013E1208F44F
:0146BA0022DD
:105A9500056BE56BC394644011E4F56B056CE56C2F
:0A5AA500943C4006E4F56C756D01B9
:015AAF0022D4
:10476100E4F522E56D70030247FAE4F56D90013E30
:10477100E0FCA3E0FDA3E0FEA3E02401FFE43EFE94
:10478100E43DFDE43CFC90013E1208F4752201C3B6
:10479100900142E0940240297F007E0212598EE48A
:1047A100900142F0A3F090013EE0FCA3E0FDA3E004
:1047B100FEA3E0F52A8E298D288C277F007E0280BA
:1047C10027900143E02400FF900142E03402FEC043
:1047D1000690013EE0FCA3E0FDA3E0FEA3E0F52A84
:1047E1008E298D288C27D00612547D900143E02418
:0B47F10004F0900142E03400F0AF2221
:0147FC00229A
:035D610002598E56
:035D6400025B7966
:105BA4008B388A39893A125B31AB38AA39A93AEF72
:035BB40002065D89
:10592A008E258F268C278D28E527FDAF26AE2512DA
:10593A005B79E5262401FFE43525FEAD28E528023A
:02594A005B7987
:104D53008E258F268B278A288929125B31AB27AAB8
:104D630028A929E48FF0120739AB27AA28A9291209
:104D7300070E75F000120739AB27AA28A929C0032B
:104D8300C002C00112070EFFAEF0C007C006E52641
:104D93002401FFE43525FE125B31EFFDD0E0FFD0A7
:0E4DA300E04DD001D002D003CF8FF0020739CF
:04547D008E258F26C3
:10548100AF2AAE29AD28AC277B007A00792B124FC9
:10549100ECE4F52F7E00E526252FFFEE3525FE7481
:1054A1002B252FF8E6FD125D64052FE52FC394042B
:0254B10040E2D7
:0154B30022D6
:0A5100008E2E8F2F8B308A318932FA
:10510A00E4F5377E00E52F2537FFEE352EFE7433A2
:10511A002537F9E4FAFB125BA40537E537C3940493
:10512A0040E17B007A007933124568AB30AA31A995
:04513A00320208DA5B
:045360008E258F26E1
:10536400AF2AAE29AD28AC27125BB77B007A00794F
:105374002B124FECE4F52F7E00E526252FFFEE35AA
:1053840025FE742B252FF8E6FD125D64052FE52F0D
:05539400C3940440E297
:0153990022F1
:0A50BF008E258F268B278A28892969
:1050C900E4F52E7E00E526252EFFEE3525FE742A11
:1050D900252EF9E4FAFB125BA4052EE52EC39404F0
:1050E90040E17B007A00792A124568125BC9AB2737
:0750F900AA28A9290208DA28
:094DCD00017000016F00016E008D
:03000B00024A3472
:104A3400C0E0C0F0C083C082C0D075D000C000C048
:0D4A440001C002C003C004C005C006C007C9
:104A5100758A85758CA2056EE56F6002156FE56E2E
:104A610024FE601314601514601724FA60182409D9
:104A7100702212540D801D12539A80181253D48043
:104A810013124897800E756E000570125D5E125A02
:044A910095125C1E00
:104A9500D007D006D005D004D003D002D001D00075
:0B4AA500D0D0D082D083D0F0D0E0321F
:075D2B008F6FE56F70FC2291
:105BEC00438E80438901758CA2758A85D2A9D28C8B
:015BFC002286
:1059070053617665204461746120454570726F6DFF
:10591700210D0A004C6F616444656661756C7421E2
:035927000D0A0066
:034DD600011F00BA
:10568300E490012DF090013012090000000000E4C5
:1056930090012EF0A3F09001341209003F80000026
:1056A300E4900138F0A3F0125D3E125CBB025C741F
:1040B000E4FFFE125D61900130E0FCA3E0FDA3E0AF
:1040C000FEA3E02401FFE43EFEE43DFDE43CFC9061
:1040D00001301208F47D0A7CA07F807E0012592AEC
:1040E000E4F524E5242482FFE433FE74222524F53C
:1040F00082E43401F583E0FD125D640524E524C308
:10410000940840DF90012DE0FD7F8F7E00125D64FA
:1041100090012EE0FCA3E0FD7F947E0012592A90CE
:104120000130E0FCA3E0FDA3E0FEA3E0F52A8E2928
:104130008D288C277F8A7E0012547D900134E0FC0C
:10414000A3E0FDA3E0FEA3E0F52A8E298D288C27AD
:104150007F907E00125360900138E0FD7F8E7E00DC
:10416000125D64900139E0FD7F967E00125D64125D
:104170005CB0125B61125B49900139E060097BFF22
:074180007A597907124EB8CD
:014187002215
:104BA400E4F524E5242482FFE433FE74222524F969
:104BB400E43401FA7B01125BA40524E524C39408C0
:104BC40040E17B017A01792D7F8F7E00125BA47B0B
:104BD400017A01792E7F947E00124D537B017A0174
:104BE40079307F8A7E001251007B017A0179347F0B
:104BF400907E001250BF7B017A0179387F8E7E004F
:104C0400125BA47B017A0179397F967E00125BA442
:094C1400125C8D125AE5025ACB24
:10503400E490013CF0A3F090013AF0FB7A0079226D
:105044007F80FE124D53E523640A7004E52264A0B8
:1050540060171256831240B0900139E0600E7BFF56
:105064007A59791B124EB88003124BA4125A251296
:0850740046121252B00259CBA2
:10594C0090013BE004F0E0D3943B4006E4F0A3E08C
:10595C0004F090013CE0D3943B4006E4F0A3E00457
:02596C00F02227
:10562100051FE51F24FE601414601424F9601B2477
:1056310009701D90012DE0701702558A0247619093
:10564100013AE0600BE4F00240B0E4F51F12594C5E
:015651002236
:1056E300125C3D125BECD2AF125034125D5A125C65
:1056F300A5125C4B122C021256521254B4E570C31D
:0F570300940A40EA74F62570F57012562180DF83
:0D5C67004B657956616C3A2562640D0A00A8
:065D3E00E490014CF0228C
:0B5CB00090014CE0FDE4FFFE025D648B
:0C5C8D007B017A01794CE4FFFE025BA46D
:1059CB00E490014CF0125AB07B027D027F0A125C0C
:0E59DB00E37B017D1E7F01125C59E4F51C2266
:10565200E4F522E51C6029E4F51C851D22FB7D058D
:105662007F01125CE3E4FB7D057F01125C5990012E
:1056720039E0600C7BFF7A5C7967852229124EB88B
:015682002205
:0D4DD9000118000114000117000215000070
:095CE3008F178D188B14C2C72223
:10540D00E51645156016E516151670021515AF143F
:10541D00EF65167002E515701EC2C722E517B4FFC1
:10542D00028006E51760101517AF14AD18ED2FF5B6
:08543D0016E433F515D2C72275
:0C5C9900010102020403080503070000DB
:0C4DE600011C00011D00011900011A0051
:105B1800E4FF20A2010F20A30343070220A40343AC
:085B2800070420A50343070850
:015B30002252
:1057F100E4FEEE25E02499F582E4345CF583E4933C
:105801006016B50710EE25E0249AF582E4345CF5C4
:0A58110083E493FF220E80DA7F008B
:01581B00226A
:104FA100125B181257F1E4FEEF602065196007E407
:104FB100F51A8F19802A051AE51AB406027E01E551
:104FC1001AB4191C751A0D7E028015E519600EE5DB
:104FD1001AC3940640047E03AF19E4F519E4F51AE7
:0A4FE1008F618E627B007A00796117
:014FEB0022A3
:105BFD00EF24FD600B24FE60078000751C018F1DD6
:015C0D002274
:10527400EF24FE600B14601424FE60262404702BBB
:10528400EDD394034025751C018F1D22ED64056048
:105294000AEDD394094014ED30E010751C01751D1E
:0C52A4000422BD0A06751C01751D0622BF
:105A4200EF24FB600C24027013EDC39406500D800A
:0D5A520006EDC394065005751C018F1D2242
:1053D400124FA1785F7C007D007E007F021205CF12
:1053E400E56024FE600F1460152402701BE4F51BB5
:1053F400AF5F025BFD051BAD1BAF5F025274AD1BBB
:08540400AF5F125A42E4F51BF0
:01540C00227D
:0E4DF2000C08000000FF5D32000000FF5D387D
:10489700E4F55FE55F75F006A4240BF808E6FA086F
:1048A700E6F9120967E55F75F006A42409F8E66FD3
:1048B700602AE55F75F006A4240BF808E6FA08E617
:1048C700F9120967E55F75F006A42409F8A607E55C
:1048D7005F75F006A4240AF8E4F6803AE55F75F000
:1048E70006A4240AF806E55F75F006A4240AF8E68C
:1048F700C394054021E55F75F006A4240AF8760500
:10490700E55F75F006A42409F8E6FFE55F75F00694
:10491700A42408F8A607055FE55FC39402500302C5
:02492700489AAC
:01492900226B
:105B9000EFC39402500BEF75F006A42408F8E6FF5B
:045BA000227FFF223F
:0D4E0000016700016300016600026400000C
:0E5C59008F668D678B63C2B2E4F564F5652239
:10539A00E56545646016E565156570021564AF63D9
:1053AA00EF65657002E5647020C2B222E566B4FF5B
:1053BA0004D2B28008E5666010D2B21566AF63AD5A
:0A53CA0067ED2FF565E433F564226A
:10281B0000C1814001C0804101C0804100C18140A5
:10282B0001C0804100C1814000C1814001C0804195
:10283B0001C0804100C1814000C1814001C0804185
:10284B0000C1814001C0804101C0804100C1814075
:10285B0001C0804100C1814000C1814001C0804165
:10286B0000C1814001C0804101C0804100C1814055
:10287B0000C1814001C0804101C0804100C1814045
:10288B0001C0804100C1814000C1814001C0804135
:10289B0001C0804100C1814000C1814001C0804125
:1028AB0000C1814001C0804101C0804100C1814015
:1028BB0000C1814001C0804101C0804100C1814005
:1028CB0001C0804100C1814000C1814001C08041F5
:1028DB0000C1814001C0804101C0804100C18140E5
:1028EB0001C0804100C1814000C1814001C08041D5
:1028FB0001C0804100C1814000C1814001C08041C5
:10290B0000C1814001C0804101C0804100C18140B4
:10291B0000C0C101C30302C2C60607C705C5C40474
:10292B00CC0C0DCD0FCFCE0E0ACACB0BC90908C8E4
:10293B00D81819D91BDBDA1A1EDEDF1FDD1D1CDCD4
:10294B0014D4D515D71716D6D21213D311D1D01044
:10295B00F03031F133F3F23236F6F737F53534F434
:10296B003CFCFD3DFF3F3EFEFA3A3BFB39F9F838A4
:10297B0028E8E929EB2B2AEAEE2E2FEF2DEDEC2C94
:10298B00E42425E527E7E62622E2E323E12120E004
:10299B00A06061A163A3A26266A6A767A56564A4F4
:1029AB006CACAD6DAF6F6EAEAA6A6BAB69A9A86864
:1029BB0078B8B979BB7B7ABABE7E7FBF7DBDBC7C54
:1029CB00B47475B577B7B67672B2B373B17170B0C4
:1029DB0050909151935352929656579755959454B4
:1029EB009C5C5D9D5F9F9E5E5A9A9B5B9959589824
:1029FB00884849894B8B8A4A4E8E8F4F8D4D4C8C14
:102A0B004484854587474686824243834181804083
:0852EB008B278A2889298D2AEE
:1052F3007FFF7DFFAE2A152AEE6023AB270529E544
:1053030029AA287002052814F91205F56DFB7A0005
:1053130090281B936FFDEB90291B93FF80D6EFFE24
:02532300EDFF9C
:015325002265
:1056B3000002010000FF54EB0002010001FF576DDF
:1056C3000002010002FF57990002010003FF55BDCC
:1056D3000002010004FF58700000000000000000F9
:1054EB007B017A0079F6900144E0FEA3E0FFC3EF65
:1054FB00940FEE9427501D9001497401F012070E82
:10550B006F7003E5F06E600CEE8FF01207399001AF
:04551B003A7401F0ED
:01551F002269
:10576D007B017A0079F9900145E0FFD39400401B4D
:10577D00EF94F850169001497401F01205F56F6021
:0B578D000AEF12065D90013A7401F073
:0157980022EE
:105799007B017A0079FB900145E0FFD39400401B1F
:1057A900EF94F850169001497401F01205F56F60F5
:0B57B9000AEF12065D90013A7401F047
:0157C40022C2
:1055BD007B017A0079FD900145E0FFD394004022F4
:1055CD00EF94F8501D9001497401F01205F56F60CC
:1055DD0011EF12065D1205F5FF125D4490013A744C
:0255ED0001F0CB
:0155EF002299
:105870007B017A0079FF900145E0FFC39408501640
:105880009001497401F01205F56F600AEF12065D90
:0658900090013A7401F0E2
:0158960022EF
:0A3FD1008E308F318B328A33893431
:103FDB00E4F538E53875F008A424B4F582E43456DA
:103FEB00F583E493FF70030240ADE53875F008A448
:103FFB0024B6F582E43456F583740193653170046D
:10400B00E493653060030240A8AB35AA36A937EFBD
:10401B0012065DE53875F008A424B5F582E4345634
:10402B00F583E49370037F0122E53875F008A4242F
:10403B00B3F582E43456F583E493900148F0E4A39E
:10404B00F0FFE53875F008A424B4F582E43456F596
:10405B0083E493FEEFC39E501EAB32AA33A9348F79
:10406B008275830012060EFE74442FF582E4340130
:10407B00F583EEF00F80CBE53875F008A424B8F586
:10408B0082E43456F583740193FA740293F912099E
:10409B0067900149E070037F01227F0222053802FD
:0440AB003FDE7F0075
:0140AF0022EE
:105A0700B4D3BBFAB5D8D6B73A2562640D0A00CA33
:0E5A1700E4C8EBC2CBB2A83A2562640D0A00C7
:083346008C2E8D2F8F828E83E7
:10334E00E4F537EBAE027803CEC313CE13D8F9FFF4
:10335E00E5822402FDE43583CD2FF539ED3EF538B7
:10336E00753A00EB5407F53BE5362BFFE5353AFE93
:10337E00EF7803CEC313CE13D8F9FFE5362BFDED50
:10338E00540760050FBF00010EE5822402FDE435EF
:10339E0083FCED2FFFEC3EFED3EF952FEE952E40E6
:1033AE0003023486E4FDFCC3ED9536EC95354003FF
:1033BE00023451ED5407701AEDAE047803CEC313E8
:1033CE00CE13D8F9AB32AA33A934F5828E83E41228
:1033DE00066FEDAE047803CEC313CE13D8F9AB321D
:1033EE002534F9E5333EFA1205F5C31312065D8551
:1033FE003982853883E0FFE53B900003935F601DC3
:10340E00EDAE047803CEC313CE13D8F9AB32253408
:10341E00F9E5333EFA1205F5448012065D053BE5EB
:10342E003B7002053AD39407E53A9400400DE4F55B
:10343E003AF53B0539E539700205380DBD00010C32
:10344E000233B5E53B453A602CEDAE047803CEC3AE
:10345E0013CE13D8F9AB322534F9E5333EFA120503
:10346E00F5FFC37408953BFEEFA806088002C31350
:0A347E00D8FC12065D753701AF3768
:013488002221
:0449B1008E2B8F2C8E
:1049B500E4F534EBAE027803CEC313CE13D8F9FF7A
:1049C500E52C2402F582E4352BF583E5822FF536B7
:1049D500E5833EF535753700EB5407F538C3E53605
:1049E5009DE5359C5046853682853583E0FFAB31A4
:1049F500AA32A9331205F5B4FF13E53890000393E5
:104A05004207853682853583EFF0753401AB31AACF
:104A150032A9331205F57014E53890000393F4526A
:0E4A250007853682853583EFF0753401AF3496
:014A33002260
:083909008C308D318F828E831A
:10391100E4F539EBAE027803CEC313CE13D8F9FF29
:10392100E5822402FDE43583CD2FF53CED3EF53BE8
:10393100753F00EB5407F540E5382BFFE5373AFEBC
:10394100EF7803CEC313CE13D8F9FFE5382BFDED85
:10395100540760050FBF00010EE5822402FDE43526
:1039610083FCED2FFFEC3EFED3EF9531EE95304019
:1039710003023A08E4F53DF53EC3E53E9538E53DE1
:1039810095374003023A05853C82853B83E0F53A51
:10399100E53EAE3D7803CEC313CE13D8F9AB34AABE
:1039A10035A936F5828E8312060EFF7C00E53E5462
:1039B100072403F582EC3400F583E4935F600AE5A4
:1039C1004090000393423A8009E54090000393F44C
:1039D100523A853C82853B83E53AF00540E54070EB
:1039E10002053FD39407E53F9400400DE4F53FF510
:1039F10040053CE53C7002053B053EE53E70020595
:093A01003D02397A753901AF3933
:013A0A002299
:044C1D008F828E8371
:104C2100E4F537EB25E0FFEA33FEEF2582FFEE35B1
:104C310083CF2402F539E43FF538E53625E0FFE579
:104C41003533FEE5392FFFE5383EFED3EF9DEE9C6F
:104C51005039E4FDFCE53625E0FFE53533FEC3EDD3
:104C61009FEC9E5023853982853883E0AB32AA338D
:104C7100A9348D828C8312066F0539E539700205DE
:0D4C8100380DBD00010C80CD753701AF3737
:014C8E002203
:084B2A008E308F318D828C83E7
:104B3200E4F53BEB25E0FFEA33FEE5312FCFE5302C
:104B42003ECF2402CF3400AD07FCE53A25E0FFE575
:104B52003933FEED2FFFEC3EFED3EF9582EE9583C7
:104B6200503DE4F53CF53DE53A25E0FFE53933FEFD
:104B7200C3E53D9FE53C9E5023AB36AA37A9388555
:104B82003D82853C8312060E8D828C83F00DBD0022
:104B9200010C053DE53D70CF053C80CB753B01AF77
:014BA2003BD7
:014BA30022EF
:0D5C74009000FD7401F09000FF7403F02219
:105ACB007B017A0079FD7FD07E00125BA47B017A8B
:0A5ADB000079FF7FD17E00025BA47A
:105B49009000FDE0FD7FD07E00125D649000FFE0D3
:085B5900FD7FD17E00025D64B6
:1059E9007BFF7A5A79079000FDE0F529124EB87BC2
:0E59F900FF7A5A79169000FFE0F529024EB8A9
:105C0E00E49000DEF0A3F0A3F0A3F0A3F0A3F02243
:10513E008E258F268C278D288B298A2A892BC3E5CD
:10514E002594004026D3E5269430E5259400501B87
:10515E007E007FE67C007DEE8B328A338934852794
:0E516E0035852836AB26AA250233467F00225F
:10517C008E258F268C278D288B298A2A892BC3E58F
:10518C002594004026D3E5269401E5259400501B78
:10519C007E007FF07C007DF28B328A338934852748
:0E51AC0035852836AB26AA25024C1D7F002231
:1051BA008E258F268C278D288B298A2A892BC3E551
:1051CA002594004026D3E5269430E5259400501B0B
:1051DA007E007FDC7C007DE48B328A33893485272C
:0E51EA0035852836AB26AA250233467F0022E3
:105520008E278F288C298D2AC3E52794004023D30A
:10553000E5289430E527940050187E007FDC7C003D
:105540007DE4753100753200753329AB28AA270236
:0555500049B17F0022BB
:1051F8008E278F288C298D2A8B2B8A2C892DC3E505
:105208002794004026D3E5289430E5279400501BC6
:105218007E007FDC7C007DE48B348A3589368529E5
:0E52280037852A38AB28AA270239097F0022D1
:105236008E258F268C278D288B298A2A892BC3E5D4
:105246002594004026D3E5269405E5259400501BB9
:105256007E007FF47C017D008B328A33893485277A
:0E52660035852836AB26AA25024C1D7F002276
:084E0E008E278F288C298D2AC4
:104E1600C3E52794004048D3E5289405E527940088
:104E2600503D75350075360075372B7B007A007955
:104E360029123FD1BF02037F0122BF01037F002257
:104E4600EF701C7E007FF47C017D00F5367537001F
:104E5600753829F539753A01AB28AA27024B2A7FFE
:014E6600004B
:014E67002228
:0E43FC008E278F288C298D2A8B2B8A2C892DB9
:10440A00C3E527940050030244B0D3E5289405E598
:10441A0027940040030244B0E4F52EE52A25E0FF84
:10442A00E52933FEAD2E7C00C3ED9FEC9E5074E56A
:10443A002EC3137E002528FFEE3527FEAB2BE52D74
:10444A002DF9EC352CFA75350075360075372F12B3
:10445A003FD1BF02037F0122BF01037F0022EF7019
:10446A00397E007FF4C0067C017D00E52EC3137EF1
:10447A00002528FBEE3527FAC002E52D252EF9EE98
:10448A00352C852B36F53789388E39852F3AD00267
:10449A00D006124B2AEF7002FF22E52F252EF52EA9
:0844AA000244257F01227F007E
:0144B20022E7
:104CF100B4D3BBFAB5D8D6B73A2562640D0A0043DE
:104D01005243D0A3D1E9203A2562640D0A00B4F2DE
:104D1100D3A1BDD3CAD53A2562640D0A000D0A4D4F
:104D21006F646275732052786420446174613A0D36
:104D31000A004352433A253030303034580D0A00CE
:104D41000102020303040405050606070F08100902
:024D5100000060
:065555007B017A00794D94
:08555B008B278A2889298D2A7B
:10556300E4F52BE52BC3952A501CAB27AA28A929C0
:105573001205F5FF125CC674012529F529E43528C7
:06558300F528052B80DD78
:0155890022FF
:103DF500E4F524AF24052474032FF582E43400F59B
:103E050083E0FCAF24052474032FF582E43400F528
:103E150083E0FDAF24052474032FF582E43400F517
:103E250083E0752200F523752300F522AF240524D0
:103E350074032FF582E43400F583E04223E523AED5
:103E4500227803CEC313CE13D8F9D3943AEE940057
:103E55004003023EE2AF05AE047B017A007950AD26
:103E650023AC221251BAEF6401707290004AE090BF
:103E7500004DF0900002E090004EF0E523540760FD
:103E850010E523AE227803CEC313CE13D8F90480F0
:103E95000DE523AE227803CEC313CE13D8F99000D7
:103EA5004FF090004FE02403F5247B017A00794D13
:103EB500FD1252EBAD07AC240524744D2CF582E4BC
:103EC5003400F583EDF0EEFFAE240524744D2EF598
:0D3ED50082E43400F583EFF0AD2412555562
:013EE20022BD
:103EE300E4F524AF24052474032FF582E43400F5AC
:103EF30083E0FCAF24052474032FF582E43400F53A
:103F030083E0FDAF24052474032FF582E43400F528
:103F130083E0752200F523752300F522AF240524E1
:103F230074032FF582E43400F583E04223E523AEE6
:103F3300227803CEC313CE13D8F9D3943AEE940068
:103F43004003023FD0AF05AE047B017A007950AD48
:103F530023AC2212513EEF6401707290004AE0904C
:103F6300004DF0900002E090004EF0E5235407600E
:103F730010E523AE227803CEC313CE13D8F9048001
:103F83000DE523AE227803CEC313CE13D8F99000E8
:103F93004FF090004FE02403F5247B017A00794D24
:103FA300FD1252EBAD07AC240524744D2CF582E4CD
:103FB3003400F583EDF0EEFFAE240524744D2EF5A9
:0D3FC30082E43400F583EFF0AD2412555573
:013FD00022CE
:103B0C00E4F524AF24052474032FF582E43400F586
:103B1C0083E0FCAF24052474032FF582E43400F514
:103B2C0083E0FDAF24052474032FF582E43400F503
:103B3C0083E0752200F523752300F522AF240524BC
:103B4C0074032FF582E43400F583E04223E523254A
:103B5C00E0FFE52233FED3EF943AEE9400400302EB
:103B6C003C05AF05AE047B017A007950AD23AC2245
:103B7C00125236EF64016003023C05F52490004AB2
:103B8C00E0FFAE240524744D2EF582E43400F58359
:103B9C00EFF0900002E0FFAE240524744D2EF58268
:103BAC00E43400F583EFF0E52325E0FFAE24052493
:103BBC00744D2EF582E43400F583EFF02524F524C2
:103BCC007B017A00794DFD1252EBAD07AC24052434
:103BDC00744D2CF582E43400F583EDF0EEFFAE2449
:103BEC000524744D2EF582E43400F583EFF07B014F
:093BFC007A00794DAD2412555BED
:013C0500229C
:103C0600E4F524AF24052474032FF582E43400F58B
:103C160083E0FCAF24052474032FF582E43400F519
:103C260083E0FDAF24052474032FF582E43400F508
:103C360083E0752200F523752300F522AF240524C1
:103C460074032FF582E43400F583E04223E523254F
:103C5600E0FFE52233FED3EF943AEE9400400302F0
:103C66003CFFAF05AE047B017A007950AD23AC2250
:103C760012517CEF64016003023CFFF52490004A78
:103C8600E0FFAE240524744D2EF582E43400F5835E
:103C9600EFF0900002E0FFAE240524744D2EF5826D
:103CA600E43400F583EFF0E52325E0FFAE24052498
:103CB600744D2EF582E43400F583EFF02524F524C7
:103CC6007B017A00794DFD1252EBAD07AC24052439
:103CD600744D2CF582E43400F583EDF0EEFFAE244E
:103CE6000524744D2EF582E43400F583EFF07B0154
:093CF6007A00794DAD2412555BF2
:013CFF0022A2
:1036D500E4F526AF26052674032FF582E43400F5BC
:1036E50083E0752200F523752300F522AF26052614
:1036F50074032FF582E43400F583E04223AF2605F9
:103705002674032FF582E43400F583E0752400F573
:1037150025752500F524AF26052674032FF582E4CB
:103725003400F583E04225E4AD25AC24AF23AE2279
:10373500125520EF640160030237EEF52690004A2A
:10374500E0FFAE260526744D2EF582E43400F583A0
:10375500EFF0900002E0FFAE260526744D2EF582AF
:10376500E43400F583EFF0E522FFAE260526744D1F
:103775002EF582E43400F583EFF0AE260526744D70
:103785002EF582E43400F583E523F0E524FFAE262B
:103795000526744D2EF582E43400F583EFF0AE2650
:1037A5000526744D2EF582E43400F583E525F07B7E
:1037B500017A00794DAD261252EBAD07AC260526F0
:1037C500744D2CF582E43400F583EDF0EEFFAE2662
:1037D5000526744D2EF582E43400F583EFF07B0168
:0937E5007A00794DAD2612555B06
:0137EE0022B8
:1037EF00E4F526AF26052674032FF582E43400F5A1
:1037FF0083E0752200F523752300F522AF260526F9
:10380F0074032FF582E43400F583E04223AF2605DD
:10381F002674032FF582E43400F583E0752400F558
:10382F0025752500F524AF26052674032FF582E4B0
:10383F003400F583E04225E4AD25AC24AF23AE225E
:10384F00124E0EEF64016003023908F52690004A0C
:10385F00E0FFAE260526744D2EF582E43400F58385
:10386F00EFF0900002E0FFAE260526744D2EF58294
:10387F00E43400F583EFF0E522FFAE260526744D04
:10388F002EF582E43400F583EFF0AE260526744D55
:10389F002EF582E43400F583E523F0E524FFAE2610
:1038AF000526744D2EF582E43400F583EFF0AE2635
:1038BF000526744D2EF582E43400F583E525F07B63
:1038CF00017A00794DAD261252EBAD07AC260526D5
:1038DF00744D2CF582E43400F583EDF0EEFFAE2647
:1038EF000526744D2EF582E43400F583EFF07B014D
:0938FF007A00794DAD2612555BEB
:01390800229C
:10348900E4F526AF26052674032FF582E43400F50A
:1034990083E0752200F523752300F522AF26052662
:1034A90074032FF582E43400F583E04223AF260547
:1034B9002674032FF582E43400F583E0752400F5C2
:1034C90025752500F524AF26052674032FF582E41A
:1034D9003400F583E04225052674032526F9E434F2
:1034E90000FA7B01AD25AC24AF23AE221251F8EFCF
:1034F900640160030235AEF52690004AE0FFAE266E
:103509000526744D2EF582E43400F583EFF0900022
:1035190002E0FFAE260526744D2EF582E43400F54F
:1035290083EFF0E522FFAE260526744D2EF582E4E1
:103539003400F583EFF0AE260526744D2EF582E4AE
:103549003400F583E523F0E524FFAE260526744D06
:103559002EF582E43400F583EFF0AE260526744D8E
:103569002EF582E43400F583E525F07B017A0079B4
:103579004DAD261252EBAD07AC260526744D2CF540
:1035890082E43400F583EDF0EEFFAE260526744D96
:103599002EF582E43400F583EFF07B017A00794D52
:0535A900AD2612555B88
:0135AE0022FA
:1035AF00E4F526AF26052674032FF582E43400F5E3
:1035BF0083E0752200F523752300F522AF2605263B
:1035CF0074032FF582E43400F583E04223AF260520
:1035DF002674032FF582E43400F583E0752400F59B
:1035EF0025752500F524AF26052674032FF582E4F3
:1035FF003400F583E04225052674032526F9E434CB
:10360F0000FA7B01AD25AC24AF23AE221243FCEFB1
:10361F00640160030236D4F52690004AE0FFAE261F
:10362F000526744D2EF582E43400F583EFF09000FB
:10363F0002E0FFAE260526744D2EF582E43400F528
:10364F0083EFF0E522FFAE260526744D2EF582E4BA
:10365F003400F583EFF0AE260526744D2EF582E487
:10366F003400F583E523F0E524FFAE260526744DDF
:10367F002EF582E43400F583EFF0AE260526744D67
:10368F002EF582E43400F583E525F07B017A00798D
:10369F004DAD261252EBAD07AC260526744D2CF519
:1036AF0082E43400F583EDF0EEFFAE260526744D6F
:1036BF002EF582E43400F583EFF07B017A00794D2B
:0536CF00AD2612555B61
:0136D40022D3
:10544500900002E024FE601A14601A14601A1460B9
:105455001A14601A24F76019146019240F701802C1
:105465003DF5023EE3023B0C023C060236D502370F
:08547500EF0234891235AF2269
:0B5CBB00E490004CF090004B04F0223D
:105AE5007B017A00794C7FC07E00125BA47B017A32
:0A5AF50000794B7FC17E00025BA424
:105B610090004CE0FD7FC07E00125D6490004BE030
:085B7100FD7FC17E00025D64AE
:105740007BFF7A4C79F190004AE0F529124EB87B44
:10575000FF7A4D790090004CE0F529124EB87BFF9E
:0D5760007A4D790F90004BE0F529024EB80C
:065D440090004AEFF0227E
:065D4A0090004CEFF02276
:065D500090004BEFF02271
:105AB000E4900046F0A3F0900049F0900048F01206
:0B5AC0005C0E9000FDE090004AF02218
:105C1E00900049E0600914F0E07004900046F02214
:02308300AD0797
:103085009000497405F0900046E0B40B004003023F
:1030950031EA90309EF82828730230BF0230D502FD
:1030A500310E02310E02310E02310E02310E0231A5
:1030B5003B02316D02316D0231C190004AE06D6015
:1030C500030231EA90004604F0900001ED023166FA
:1030D500E4900046F0FFEF25E02441F582E4344D0D
:1030E500F583E49370030231EAB5051A900002F006
:1030F500E4900048F0EF25E02442F582E4344DF5F4
:1031050083E4930231BC0F80CD900048E02403F5A1
:1031150082E43400F583EDF0900048E004F0E0C36C
:10312500940450030231EA900046740AF090004876
:10313500E0900045802B900048E02403F582E434BC
:1031450000F583EDF0900048E004F0E0C3940450EE
:10315500030231EA900046740AF0900048E09000BE
:1031650045F0E4900048F022900048E02403F58201
:10317500E43400F583EDF0900048E004F0E0FFD37F
:1031850094054029900007E02404FBE433FAD3EFCB
:103195009BEA6480F87480984013900046740AF0A6
:1031A500900048E0900045F0E4900048F090004819
:1031B500E0D39440402FE4900046F022900043E095
:1031C500F8E4F0E8A3F0EDFE900043E04EF0A3E054
:1031D500F0900048E004F0E0C394024008E4900059
:0531E50046F0A304F018
:0131EA0022C2
:1057C5007BFF7A4D791E124EB87BFF7A4D79339067
:1057D5000043E0F529A3E0F52A124EB87B017A00D3
:0C57E5007901900045E02402FD024C8F89
:1054B400900047E06030E4F090004BE06003125746
:1054C400C590004CE0701C7B017A00790190004586
:1054D400E02402FD1252EB900043E0B50608A3E07D
:0754E400B507031254452235
:10002600020348E86480F8E933E83360110460F0BD
:10003600ED33EC337009E8FCE9FDEAFEEBFF220440
:1000460060DED3EB9FEA9EE99DE8C2E78CF0C2F73B
:1000560095F0400CE8CCF8E9CDF9EACEFAEBCFFB07
:1000660012031385D0F05804700320D5B3E804704A
:10007600075002B2D502035292D5EC0460F7E4CCE5
:10008600C0E0C398F8603B94186008400DD0E0FBD0
:1000960002032AE4FBFAC9FC8028E830E406E4C936
:1000A600FBE4CAFCE830E305E4C9CACBFCE8540724
:1000B6006010F8C3E913F9EA13FAEB13FBEC13FC2F
:1000C600D8F130F52FC3E49CFCEF9BFFEE9AFEEDD2
:1000D60099FDD0E0FBEF4E4D4C701222DB0302037C
:1000E6004FEC2CFCEF33FFEE33FEED33FDED30E746
:1000F600EB02032AEF2BFFEE3AFEED39FDD0E0FBD3
:1001060050130BBB0003020352ED13FDEE13FEEF7B
:0801160013FFEC13FC02032AA5
:10011E00EC4D6011E8497017ED33EC3304600DE4DB
:10012E00FCFFFEFD22E933E8330470F802034812A7
:10013E00031358046009E4CC2481500628500902A8
:10014E00035228400302034FC0E0EB4A7044B980CB
:10015E0006D0E0FB02033EEF4E701CBD8008EBFFA5
:10016E00EAFEE9FD80EBE98DF0A4FEE5F002020760
:10017E00E9CDF9EAFEEBFFEF89F0A4FCE5F0CE89BC
:10018E00F0A42EFFE435F0CD89F0A42DFEE435F079
:10019E008067EF4E7005BD80D780C3EF8BF0A4ACA7
:1001AE00F0EE8BF0A42CFCE435F0F8EF8AF0A42CE2
:1001BE00E5F038FCE433CB8DF0A42CFCE5F03BF8F5
:1001CE00EE8AF0A42CFCE5F038F8E433CF89F0A4E5
:1001DE002CFCE5F038CF3400CE89F0A42FFFE5F0EB
:1001EE003EFEE433C98DF0A42EFEE5F039CD8AF043
:1001FE00A42FFFE5F03EFEE43DFD33D0E0FB5007BB
:10020E000BBB000F020352EC2CFCEF33FFEE33FE60
:06021E00ED33FD02032A8E
:10022400020352EC5D046005E859047003020348BC
:10023400120313580460F6EC4860F2EC7004FDFEFF
:10024400FF22C860DB2481C85009C39860025006AD
:1002540002034F9850CAF582E9294B4A7005AB82D4
:1002640002033E75F0007C1A7880C3EF9BEE9AED92
:1002740099400DC3EF9BFFEE9AFEED99FDE842F025
:10028400DC23ACF0D0E0FFD0E0FED0E0FDAB822078
:10029400E7101BEB60BAEC2CFCEF33FFEE33FEED02
:1002A40033FD02032AE803F830E705C0F075F000D7
:1002B400EF2FFFEE33FEED33FD40B830E7C280AAE6
:1002C400ED33EC33600A047003BD8004ECB2E7FC48
:0102D4002207
:1002D50075F020800E75F010800575F0087D007EA4
:1002E500007F003392D530D503120875EC334010EA
:1002F500EF33FFEE33FEED33FDEC33FCD5F0ED22AD
:0E030500E5F0247EA2D513CC92E7CDCEFF22E8
:101B2100E55A2446F8E6055A2278433007027846FA
:101B3100E475F0011209310205F52000EB7F2ED288
:101B4100008018EF540F2490D43440D4FF30040B9C
:101B5100EF24BFB41A0050032461FFE55B60021556
:101B61005B055EE55E7002055D30070D7843E47547
:101B7100F001120931EF02065D0258977403D20792
:101B81008003E4C207F55A8B438A448945E4F55B37
:101B9100F55DF55EE55B60077F20121B5C80F575E6
:101BA1005CFFC201C200C202C203C205C206C20872
:101BB100121B2AFF700D3007057F00121B6DAF5EEF
:101BC100AE5D22B4255FC2D5C204121B2AFF24D008
:101BD100B40A00501A75F00A785B30D50508B6FFD3
:101BE1000106C6A426F620D5047002D20380D924AA
:101BF100CFB41A00EF5004C2E5D204021E5AD2013A
:101C010080C6D20080C0D20280BCD2D580BAD205B3
:101C110080B47F20121B5C2002077401B55B004079
:101C2100F1121B21FF121B5C021B95D208D2068008
:101C310095121B21FB121B21FA121B21F94A4B7031
:101C41000679517A1F7BFF20022EE55B602A7E0018
:101C51008E8275830012060E60060EEE655C70F0D2
:101C6100C2D5EBC0E0EAC0E0E9C0E0EE121EBAD096
:101C7100E0F9D0E0FAD0E0FB1205F5FF60AAEBC075
:101C8100E0EAC0E0E9C0E0121B5CD0E02401F9D039
:101C9100E03400FAD0E0FBE55C0460DCD55CD9807F
:101CA10087D20280A2121E9D60F7E55C70010412CA
:101CB100035DA95C600DE55C600914F55C121F44CD
:101CC100EF60F3EA30E702F404C3995077EAF425B0
:101CD1005C0430E701E404F55C800D121E9D60C1D7
:101CE100EA055C255C12035DEA7859F630E701E408
:101CF100255C04D55C0420050114121EBAE4C0E081
:101D0100121F447859E6601320E70714F6121B44AA
:101D1100802204F6D0E014C0E07F00121B44E55C91
:101D21006007121B3B155C800B300503121B3BD077
:101D3100E0021B95D0E00480C5121E9D60A0E55C09
:101D41000412035D7859EAF6E55C2005026001049E
:051D51002404121EBA7B
:101D560074FF04C0E0121F44121B44E55C20050218
:101D66006003121B3BD0E0B55CE87F45121B4E7842
:101D760059E67F2B30E7047F2DF404C0E0121B5C8C
:101D8600D0E075F00A84C0F0121B45D0E0121B4566
:101D9600021B95791080027908C206C2088008D213
:101DA600D5790A8004790AC2D5E55C047002F55C2F
:101DB600E4FAFDFEFF121B21FC7B08200113121B17
:101DC60021FD7B1030000A121B21FE121B21FF7B16
:101DD60020EC3382D592D55013C3E43000069FFF22
:101DE600E49EFEE42001039DFDE49CFCE4CBF8C2E6
:101DF60001EC700CCFCECDCCE824F8F870F3801748
:101E0600C3EF33FFEE33FEED33FDEC33FCEB33FB78
:101E1600994002FB0FD8E9EB300105F8D0E0C44841
:101E2600B201C0E00AEC4D4E4F78207B0070C2EA4A
:101E3600B55C0040BCC0E0121EBCD0F0D0E0200172
:101E460004C4C0E0C4B201C0F0121B45D0F0D5F006
:101E5600EB021B951209411C32531D99581C034C69
:101E66001BFF421D9D4F1DA5441DA5491C18431D62
:101E7600AB551CDC461D3A451CA6471F71501C0776
:101E86002D1C0B2E1C2E2B1C0F231C2C201F5A2AFC
:101E96001BC74800001C26E55CB4FF03755C0612F0
:101EA6001B21FC121B21FD121B21FE121B21FF7898
:101EB6005202038C790AA2D5200314300509B91001
:101EC600020404B9080104A2D52006025001042028
:101ED60002689202B55B005034C0E07F20300319DF
:101EE6007F30A20272067205500F121F13C202C281
:101EF60006C205C2087F30800F300503E9C0E01234
:101F06001B5C300503D0E0F9D0E0B55BCC3005179B
:101F16007F30B9100C121B5C7F583004077F788025
:101F260003B90803121B5C3002057F2D021B5C7F80
:101F3600202008F87F2B2006F322920280CF7F0014
:101F4600B4070050052452F8E6FF22286E756C6C23
:101F56002900D201121B213001F8C201785B30D56D
:101F66000108F6021BC72D50434958121B212403B2
:101F7600B405004001E4901F6C93121B4D743A1295
:0A1F86001B4DD203755B04021D9988
:10571200853D46853E47853F48EBC540FBEAC5418E
:10572200FAE9C542F97F0978491205F5F60809E94F
:0E57320070010ADFF4AB40AA41A942021B7DC0
:10031300E9D2E7C933E833F892D5EDD2E7CD33EC30
:0703230033FC5002B2D522A9
:10032A00EC30E7100FBF000C0EBE00080DBD000434
:10033A000BEB6014A2D5EB13FCED92E7FD2274FFE0
:10034A00FCFDFEFF22E480F8A2D574FF13FC7D8039
:03035A00E480EF4D
:10035D00F920E72824F950037907E4F42402FB1867
:10036D00DBFDE624FB5014E9600DE4F618E604F617
:0F037D00B40A08E4F6D9F57401F60A22C2D522B3
:10038C00ED33EC3392D5FA602AB4FF33EDC2E77B40
:10039C00FF60067A0379B1E4227A0379BA20D50496
:1003AC007A0379B5224E614E002B494E46002D49F9
:1003BC004E4600E47A08F608DAFC7B00740722E863
:1003CC00C0E0ECC0E0EDC0E0EEC0E0EFC0E0EA75EC
:1003DC00F010A4CAABF075F04DA42BFBE435F0FC87
:1003EC00EA2410FAEB34C5FBEC34D9FCEDC2E7FF80
:1003FC0075F056A4F42411C5F0F434C58FF0A42A7A
:10040C00E5F03BE43CF620E7141204BFD0E0FFD04B
:10041C00E0FED0E0FDD0E0FC1202278014F40412C0
:10042C0004BFD0E0FFD0E0FED0E0FDD0E0FC120134
:10043C001ED0E0F8E6FAEDD2E7CD33EC332482FBA4
:10044C00E4C3CF33CFCE33CECD33CD33DBF37B0709
:10045C0075F00A846004F6081B0AE5F0F6088FF0C4
:10046C00740AA4FFACF08EF0740AA42CFEACF0500D
:10047C00010C8DF0740AA42CFDE435F0F608DBDEDB
:03048C00740722D0
:10048F003F8000004120000042C80000447A000075
:10049F00461C400047C35000497424004B189680F7
:1004AF004CBEBC205A0E1BCA6753C21C749DC5AEEE
:1004BF00FB60065407601C23231204EDEB543860D5
:1004CF00091204D91204E812011EECF8EDF9EEFA44
:1004DF00EFCB22EB1204E880F1543803241C900474
:1004EF008FFE93FC0EEE93FD0EEE930ECE93FF2236
:104817000256E3E493A3F8E493A34003F68001F27E
:1048270008DFF48029E493A3F85407240CC8C333A2
:10483700C4540F4420C8834004F456800146F6DF71
:10484700E4800B0102040810204080904DB1E47E03
:10485700019360BCA3FF543F30E509541FFEE49366
:10486700A360010ECF54C025E060A840B8E493A32D
:10487700FAE493A3F8E493A3C8C582C8CAC583CA58
:10488700F0A3C8C582C8CAC583CADFE9DEE780BE10
:014E0D0000A4
:1004FF00E709F608DFFA8046E709F208DFFA803EDF
:10050F0088828C83E709F0A3DFFA8032E309F608CB
:10051F00DFFA8078E309F208DFFA807088828C8333
:10052F00E309F0A3DFFA806489828A83E0A3F608E7
:10053F00DFFA805889828A83E0A3F208DFFA804CC1
:10054F0080D280FA80C680D4806980F28033801098
:10055F0080A680EA809A80A880DA80E280CA803301
:10056F0089828A83ECFAE493A3C8C582C8CCC58379
:10057F00CCF0A3C8C582C8CCC583CCDFE9DEE78049
:10058F000D89828A83E493A3F608DFF9ECFAA9F0C8
:10059F00EDFB2289828A83ECFAE0A3C8C582C8CC1E
:1005AF00C583CCF0A3C8C582C8CCC583CCDFEADE37
:1005BF00E880DB89828A83E493A3F208DFF980CC99
:1005CF0088F0EF60010E4E60C388F0ED2402B40492
:1005DF000050B9F582EB2402B4040050AF23234539
:0605EF00822390054F730A
:1005F500BB010689828A83E0225002E722BBFE0204
:09060500E32289828A83E4932236
:10060E00BB010CE58229F582E5833AF583E02250A1
:10061E0006E92582F8E622BBFE06E92582F8E222EB
:0D062E00E58229F582E5833AF583E4932205
:10063B00BB010989828A83F8E028F022500327F74F
:10064B0022BBFE05F8E328F3228A838982F8E49320
:02065B00282253
:10065D00BB010689828A83F0225002F722BBFE017C
:02066D00F32276
